:020000040800F2
:10000000600600203902000841020008430200088F
:1000100045020008470200084902000800000000ED
:100020000000000000000000000000004B0200087B
:100030004D020008000000004F02000851020008B5
:10004000530200085302000853020008530200083C
:10005000530200085302000853020008530200082C
:10006000530200085302000853020008530200081C
:10007000530200085302000853020008530200080C
:1000800053020008530200085302000853020008FC
:1000900053020008530200085302000853020008EC
:1000A00053020008530200085302000853020008DC
:1000B00053020008530200085302000853020008CC
:1000C00053020008530200085302000853020008BC
:1000D00053020008530200085302000853020008AC
:1000E000530200085302000853020008530200089C
:1000F000530200085302000853020008530200088C
:10010000530200085302000853020008530200087B
:10011000530200085302000853020008530200086B
:10012000530200085302000853020008530200085B
:10013000530200085302000853020008530200084B
:10014000530200085302000853020008530200083B
:10015000530200085302000853020008530200082B
:10016000530200085302000853020008530200081B
:100170005302000853020008530200080000000068
:10018000530200085302000800F002F800F044F89F
:1001900014A696E8000CB244B344DA4501D100F04D
:1001A0003BF8BAE80F000FA696E83000A5EB04056F
:1001B00004EB0607AAEB0704A7F101074FEA1515A0
:1001C0004FEA3414A4F10104AC4201D300F024F846
:1001D00013F0010F18BFFB1A43F0010300F001F800
:1001E000DBE7184780020000900200007047000023
:1001F0000023002400250026103A28BF78C1FBD830
:10020000520728BF30C148BF0B6070471FB500F0D0
:100210001BF91FBD10B510BD00F036F81146FFF7F1
:10022000F5FF00F0E7F800F054F803B4FFF7F2FF31
:1002300003BC00F057F80000094880470948004710
:10024000FEE7FEE7FEE7FEE7FEE7FEE7FEE7FEE786
:10025000FEE7FEE704480549054A064B70470000E3
:10026000F5020008890100086000002060060020F7
:100270006002002060020020704770477047000055
:1002800000487047000000207546FFF7F9FFAE46B2
:1002900005006946534620F00700854618B020B592
:1002A000FFF7D8FFBDE820404FF000064FF00007F1
:1002B0004FF000084FF0000BAC46ACE8C009ACE8CA
:1002C000C009ACE8C009ACE8C00921F007018D46BF
:1002D000704710B50446AFF300802046BDE81040DB
:1002E000FFF7A3BF01491820ABBEFEE726000200BE
:1002F0007047000082B04EF6885CCEF2000CDCF84D
:10030000002043F6000142F47002C4F20201CCF86E
:1003100000200A684FF6FF7042F001020A600022D6
:100320008A600B68CFF6F6601840086043F2100050
:10033000C2F200404860086820F480200860CA606B
:1003400001920092086840F480300860086800F468
:1003500000300090019801300190009818B9019880
:10036000B0F5A04FF2D10868800354BF00200120EF
:1003700000900098012834D1086C40F08050086447
:1003800047F20000C4F20000026842F440420260FA
:1003900088688860886840F400408860886840F415
:1003A000A050886045F21940C0F24070486008686B
:1003B00040F08070086000BF08688001FCD540F202
:1003C0000570C1F80004886820F003008860886820
:1003D00040F00200886000BF886800F00C00082828
:1003E000FAD14FF000604CF8800C02B0704700006A
:1003F0007047000040F63404C4F200044FF416784D
:100400004FF47A7940F2DC574FF4FA6540F69806DB
:100410004AF2C220C4F80080FFF7EAFF4AF2C22085
:10042000C4F80090FFF7E4FF4AF2C2202760FFF70C
:10043000DFFF4AF2C2202560FFF7DAFF4AF2C2204E
:100440002660FFF7D5FFE3E7F1EE100A4FF6FF71E4
:10045000C0F2C03120EA010040F04070E1EE100A25
:1004600070470000740400080000002060060000CF
:04047000F00100088F
:0400000508000239B4
:00000001FF
