:020000040800F2
:10000000600600200D020008150200081702000813
:10001000190200081B0200081D0200080000000071
:100020000000000000000000000000001F020008A7
:100030002102000800000000230200082502000839
:1000400027020008270200082702000827020008EC
:1000500027020008270200082702000827020008DC
:1000600027020008270200082702000827020008CC
:1000700027020008270200082702000827020008BC
:1000800027020008270200082702000827020008AC
:10009000270200082702000827020008270200089C
:1000A000270200082702000827020008270200088C
:1000B000270200082702000827020008270200087C
:1000C000270200082702000827020008270200086C
:1000D000270200082702000827020008270200085C
:1000E000270200082702000827020008270200084C
:1000F000270200082702000827020008270200083C
:10010000270200082702000827020008270200082B
:10011000270200082702000827020008270200081B
:10012000270200082702000827020008270200080B
:1001300027020008270200082702000827020008FB
:1001400027020008270200082702000827020008EB
:1001500027020008270200082702000827020008DB
:1001600027020008270200082702000827020008CB
:1001700027020008270200082702000827020008BB
:10018000270200082702000800F002F800F02EF80D
:100190000AA090E8000C82448344AAF10107DA45E2
:1001A00001D100F023F8AFF2090EBAE80F0013F006
:1001B000010F18BFFB1A43F001031847180600008F
:1001C000280600000023002400250026103A28BF3E
:1001D00078C1FBD8520728BF30C148BF0B607047B9
:1001E0001FB500F0F1FA1FBD10B510BD00F031F8D9
:1001F0001146FFF7F5FF00F099FA00F04FF803B44D
:10020000FFF7F2FF03BC00F057F8000009488047F1
:1002100009480047FEE7FEE7FEE7FEE7FEE7FEE7E8
:10022000FEE7FEE7FEE7FEE704480549054A064B00
:1002300070470000C5060008890100086000002022
:1002400060060020600200206002002070477047B6
:100250007047754600F02CF8AE46050069465346D7
:1002600020F00700854618B020B5FFF7DDFFBDE898
:1002700020404FF000064FF000074FF000084FF00D
:10028000000B21F00701AC46ACE8C009ACE8C0099E
:10029000ACE8C009ACE8C0098D46704710B504460B
:1002A000AFF300802046BDE81040FFF7A8BF000074
:1002B000004870470000002001491820ABBEFEE74F
:1002C00026000200704721B1826842F0010282607C
:1002D00003E0826822F00102826070470021084A30
:1002E0001168084A1140D0E900231A4383681A4371
:1002F000C3681A431143044AC2F80413704700004C
:1003000004230140E030FCFF002001400146C86C9E
:1003100080B270470246002013680B400BB10120E9
:1003200000E000207047000030B5024600200023A6
:100330005068104C20400D790C6844EA0524204395
:10034000506090680C4C2040D1E903542C438D68D8
:100350002C434D7944EA450420439060D06A20F450
:1003600070000C7D641EE4B2234340EA0350D06267
:1003700030BD0000FFFEFFFCFDF7FFC0F0B50446F6
:100380000D4600200021092D11DDE068A5F10A06C7
:1003900006EB4607072606FA07F18843A5F10A0689
:1003A00006EB460603FA06F10843E0600CE020691C
:1003B00005EB4507072606FA07F1884305EB4506D6
:1003C00003FA06F108432061072A0FDA606B561E14
:1003D00006EB86071F2606FA07F18843561E06EB32
:1003E000860605FA06F10843606322E00D2A0FDA5B
:1003F000206BD61F06EB86071F2606FA07F18843F7
:10040000D61F06EB860605FA06F10843206310E0C6
:10041000E06AA2F10D0606EB86071F2606FA07F131
:100420008843A2F10D0606EB860605FA06F108439D
:10043000E062F0BD816841F080418160704700005A
:1004400000B58DB00121082000F08EF8012108468A
:1004500000F08AF80121080200F096F801208DF8DA
:10046000080000208DF80A004FF470400190002031
:100470008DF80B0001A9134800F02AF803208DF82D
:10048000080000208DF80A000120019000208DF85E
:100490000B0001A90C4800F01BF8002003904FF45A
:1004A0008030049003A8FFF719FF4FF00070079009
:1004B00007A90648FFF738FF01210448FFF703FFAB
:1004C0000DB000BD000C02400000024000200140C1
:1004D000F0B50A4600210023002400BF3DE00125BD
:1004E00005FA01F3156805EA03049C4234D1056856
:1004F0004F000326BE40B543056015794E00B54058
:100500000668354305601579012D02D01579022D55
:1005100016D185684F000326BE40B54385605579E6
:100520004E00B540866835438560456801268E409B
:10053000B5434560456896798E40B6B2354345600F
:10054000C5684F000326BE40B543C560D5794E004F
:10055000B540C6683543C560491C1029BFD3F0BDFE
:10056000418370470183704729B1064A12680243EC
:10057000044B1A6004E0034A12688243014B1A607C
:10058000704700003038024029B1064A1268024321
:10059000044B1A6004E0034A12688243014B1A605C
:1005A000704700004438024010B5032301220021A7
:1005B0000848FFF7E3FE0748FFF73CFF00BF0221B2
:1005C0000448FFF7A7FE0028F9D00248FFF79EFE77
:1005D000C0B210BD002001400CB500200190009079
:1005E0003448006840F480303249086000BF314828
:1005F000006800F4003000900198401C01900098C1
:1006000018B90198B0F5A04FF1D12A48006800F45C
:10061000003010B10120009001E00020009000980F
:10062000012846D123484030006840F080502149DD
:10063000403108602048006840F440401E4908608E
:100640001C48083000681B490831086008460068EB
:1006500040F4004008600846006840F4A05008607C
:100660001648091F0860081F006840F08070091FC5
:10067000086000BF0F48006800F000700028F9D043
:1006800040F205700E4908600A480830006820F002
:1006900003000849083108600846006840F002007D
:1006A000086000BF03480830006800F00C0008280C
:1006B000F8D10CBD003802400070004019544007CA
:1006C000003C024010B51548006840F47000134922
:1006D00008601348006840F00100114908600020DC
:1006E0000F49083108600E4800680E4908400C495F
:1006F00008600D48091D0860081F006820F480206C
:10070000091F0860002006490C310860FFF764FFEC
:100710004FF0006001498039086010BD88ED00E0AD
:1007200000380240FFFFF6FE10300024FFF788FE7D
:1007300046E0FFF739FF0446642C14DA4FF4805189
:100740002048FFF70FFF4FF400511E48FFF708FF46
:100750004FF480411B48FFF703FF4FF40041194855
:10076000FFF7FEFE2CE0632C16DDC82C14DA4FF4E4
:1007700080511448FFF7F4FE4FF400511148FFF781
:10078000F1FE4FF480410F48FFF7ECFE4FF40041BB
:100790000C48FFF7E5FE13E04FF480510948FFF7DE
:1007A000DFFE4FF400510748FFF7DAFE4FF48041B7
:1007B0000448FFF7D7FE4FF400410248FFF7D2FE8E
:1007C000B7E70000000C02404FF04070E1EE100A65
:1007D00070470000E40700080000002060060000E9
:0407E000C401000848
:040000050800020DE0
:00000001FF
