:020000040800F2
:10000000600600203902000841020008430200088F
:1000100045020008470200084902000800000000ED
:100020000000000000000000000000004B0200087B
:100030004D020008000000004F02000851020008B5
:10004000530200085302000853020008530200083C
:10005000530200085302000853020008530200082C
:10006000530200085302000853020008530200081C
:10007000530200085302000853020008530200080C
:1000800053020008530200085302000853020008FC
:1000900053020008530200085302000853020008EC
:1000A00053020008530200085302000853020008DC
:1000B00053020008530200085302000853020008CC
:1000C00053020008530200085302000853020008BC
:1000D00053020008530200085302000853020008AC
:1000E000530200085302000853020008530200089C
:1000F000530200085302000853020008530200088C
:10010000530200085302000853020008530200087B
:10011000530200085302000853020008530200086B
:10012000530200085302000853020008530200085B
:10013000530200085302000853020008530200084B
:10014000530200085302000853020008530200083B
:10015000530200085302000853020008530200082B
:10016000530200085302000853020008530200081B
:100170005302000853020008530200080000000068
:10018000530200085302000800F002F800F044F89F
:1001900014A696E8000CB244B344DA4501D100F04D
:1001A0003BF8BAE80F000FA696E83000A5EB04056F
:1001B00004EB0607AAEB0704A7F101074FEA1515A0
:1001C0004FEA3414A4F10104AC4201D300F024F846
:1001D00013F0010F18BFFB1A43F0010300F001F800
:1001E000DBE718473C0500004C05000070470000A5
:1001F0000023002400250026103A28BF78C1FBD830
:10020000520728BF30C148BF0B6070471FB500F0D0
:1002100079FA1FBD10B510BD00F031F81146FFF797
:10022000F5FF00F02FFA00F04FF803B4FFF7F2FFEC
:1002300003BC00F057F80000094880470948004710
:10024000FEE7FEE7FEE7FEE7FEE7FEE7FEE7FEE786
:10025000FEE7FEE704480549054A064B70470000E3
:100260008905000889010008600000206006002060
:10027000600200206002002070477047704775469A
:1002800000F02CF8AE4605006946534620F0070002
:10029000854618B020B5FFF7DDFFBDE820404FF0E0
:1002A00000064FF000074FF000084FF0000BAC467F
:1002B000ACE8C009ACE8C009ACE8C009ACE8C009CA
:1002C00021F007018D46704710B50446AFF300805A
:1002D0002046BDE81040FFF7A8BF00000048704767
:1002E0000000002001491820ABBEFEE726000200F6
:1002F000704700008268002922F0010218BF013215
:100300008260704780B542F2043CC4F2010CDCF814
:10031000002043F2E003CFF6FC7302EA030ED0E9BB
:100320000031D0E9022043EA0E0319431143084388
:10033000CCF8000080BD0000C06C80B270470000A7
:100340000068084018BF01207047000010B54268DF
:100350004FF6FF63CFF6FF4302EA030C0B680A79FE
:1003600043EA0C0343EA0222426082684FF2FD73C3
:10037000CCF2FF0302EA030E0A69D1E902C342EAA2
:100380000E024C791A4342EA0C0242EA44028260AD
:10039000C26A097D22F470020139C9B242EA0151F0
:1003A000C16210BDB0B501EB410C4FF0100E092930
:1003B00088BFACF11E0C88BF4FF00C0E50F80E40F9
:1003C000072505FA0CF5AC4303FA0CF3234340F878
:1003D0000E30062A02EB820303D834306FF0040299
:1003E00007E00C2A87BF2C306FF0400230306FF0EE
:1003F00022021A4403681F259540AB4391401943DC
:100400000160B0BD816841F08041816070470000AB
:10041000F0B58DB008200121012600F083F80120FD
:10042000012100F07FF84FF48070012100F086F880
:1004300042F200044FF47040C4F2010401AD002701
:10044000019004F56C4029468DF80860ADF80A70FB
:1004500000F020F803208DF8080004F560402946DC
:10046000ADF80A70019600F015F84FF48030049052
:1004700003A80397FFF746FF4FF00070079007A906
:100480002046FFF763FF20460121FFF733FF0DB041
:10049000F0BD00002DE9F041D1F8008000234FF0BD
:1004A000030C4FF0010E00240FE000BFC268AA4306
:1004B000C260CA79C5689A402A43C2600134102CD0
:1004C00003F1020308BFBDE8F08128FA04F5ED0747
:1004D000F4D006680CFA03F5AE4306600E7907689F
:1004E00006FA03F2013E3A43012E0260DED882682A
:1004F000EE43324082604A798E7987689A403A4367
:10050000826042680EFA04F7BA43426006FA04F2C7
:10051000466892B232434260C8E7000041837047A8
:1005200001837047002943F63001C4F202010A68D2
:100530000CBF22EA0000104308607047002943F610
:100540004401C4F202010A680CBF22EA0000104311
:100550000860704710B542F20004C4F2010420465E
:10056000002101220323FFF71DFF2046FFF74AFF6A
:1005700020460221FFF7E4FE0028F9D02046FFF7CD
:10058000DBFEC0B210BD000082B04EF6885CCEF239
:10059000000CDCF8002043F6000142F47002C4F2C3
:1005A0000201CCF800200A684FF6FF7042F0010209
:1005B0000A6000228A600B68CFF6F6601840086077
:1005C00043F21000C2F200404860086820F4802026
:1005D0000860CA6001920092086840F480300860A8
:1005E000086800F4003000900198013001900098F4
:1005F00018B90198B0F5A04FF2D10868800354BF34
:100600000020012000900098012834D1086C40F0AF
:100610008050086447F20000C4F20000026842F40F
:100620004042026088688860886840F400408860C2
:10063000886840F4A050886045F21940C0F24070CC
:100640004860086840F08070086000BF086880015A
:10065000FCD540F20570C1F80004886820F0030062
:100660008860886840F00200886000BF886800F0F9
:100670000C000828FAD14FF000604CF8800C02B052
:100680007047000040F60044C4F20204FFF7C0FEC9
:100690000CE000BFFFF742FF20464FF48041FFF718
:1006A0003FFF20464FF40041FFF73AFFFFF752FFAC
:1006B00063280FD820464FF48051FFF731FF2046C2
:1006C0004FF40051FFF72AFF20464FF48041FFF717
:1006D00025FF11E0054620464FF48051FFF71EFF2D
:1006E00020464FF40051C72DD4D8FFF719FF2046FC
:1006F0004FF48041FFF714FF20464FF40041FFF70D
:100700000DFFD3E7F1EE100A4FF6FF71C0F2C031D2
:1007100020EA010040F04070E1EE100A704700004E
:10072000300700080000002060060000F00100080B
:0400000508000239B4
:00000001FF
