:020000040800F2
:10000000A006002041020008490200084B02000837
:100010004D0200084F0200085102000800000000D5
:100020000000000000000000000000005302000873
:10003000550200080000000057020008590200089D
:100040005B0200085B0200085B0200085B0200081C
:100050005B0200085B0200085B0200085B0200080C
:100060005B0200085B0200085B0200085B020008FC
:100070005B0200085B0200085B0200085B020008EC
:100080005B0200085B0200085B0200085B020008DC
:100090005B0200085B0200085B0200085B020008CC
:1000A0005B0200085B0200085B0200085B020008BC
:1000B0005B0200085B0200085B0200085B020008AC
:1000C0005B0200085B0200085B0200085B0200089C
:1000D0005B0200085B0200085B0200085B0200088C
:1000E0005B0200085B0200085B0200085B0200087C
:1000F0005B0200085B0200085B0200085B0200086C
:100100005B0200085B0200085B0200085B0200085B
:100110005B0200085B0200085B0200085B0200084B
:100120005B0200085B0200085B0200085B0200083B
:100130005B0200085B0200085B0200085B0200082B
:100140005B0200085B0200085B0200085B0200081B
:100150005B0200085B0200085B0200085B0200080B
:100160005B0200085B0200085B0200085B020008FB
:100170005B0200085B0200085B0200080000000050
:100180005B0200085B02000800F002F800F049F88A
:1001900014A696E8000CB244B344DA4501D100F04D
:1001A00040F8BAE80F000FA696E83000A5EB04056A
:1001B00004EB0607AAEB0704A7F101074FEA1515A0
:1001C0004FEA3414A4F10104AC4201D300F029F841
:1001D00013F0010F18BFFB1A43F0010300F001F800
:1001E000DBE71847A80C0000B80C000070470000BF
:1001F0000023002400250026103A28BF78C1FBD830
:10020000520728BF30C148BF0B607047642900F017
:100210007F80002070471FB500F022FE1FBD10B583
:1002200010BD00F02FF91146FFF7F5FF00F0CCFCF0
:1002300000F04DF903B4FFF7F2FF03BC00F050F9F2
:100240000948804709480047FEE7FEE7FEE7FEE76A
:10025000FEE7FEE7FEE7FEE7FEE7FEE704480549A6
:10026000054A064B70470000C909000889010008CB
:10027000A0000020A0060020A0020020A002002074
:100280000FB41CB5074B06AA7B446946009005983D
:1002900000F0DBF80020694600F0EAF81CBC5DF8CD
:1002A00014FB0000E50100002DE9F0410E46044674
:1002B000002020622046E168884730B3252805D019
:1002C000D4E901219047206A401CF2E7E16820460A
:1002D00000278847050018D0A5F14100192802D849
:1002E00020354FF400673246294620462760FFF745
:1002F0008DFF40B1012804D0F61D26F00706083610
:10030000D8E7361DD6E72846DAE7206ABDE8F0814F
:100310002DE9F0410646002410687529314616A5DE
:1003200010D0AFF30080002802DA404213A507E0A6
:1003300031688A0701D512A502E0490704D511A545
:10034000012401E0AFF3008000210A2206F1240716
:1003500009E0B0FBF2FCB0FBF2F302FB1C00303012
:1003600078541846491C0028F3D123462A463046C3
:10037000BDE8F04100F00BB8000000002D000000C7
:100380002B000000200000007047704770472DE9E7
:10039000F0470D4699469246044600F1240801684C
:1003A000880604D5E06921F01001216000E00120F9
:1003B000A84201DD471B00E00027A1697A1902EB82
:1003C0000900081AA0612078C00602D42046AFF3C5
:1003D0000080002608E0D4E901211AF806009047C1
:1003E000206A401C761C20624E45F4DB2078C00653
:1003F0000AD52046AFF3008006E0D4E90121302081
:100400009047206A401C2062381EA7F10107F4DCE7
:1004100007E0D4E9012118F805009047206A401C44
:100420002062281EA5F10105F3DC2046AFF3008011
:100430002078000602D50220BDE8F0870120FBE706
:1004400001694A1C02610878704700B58FB0CDE998
:1004500001310021059105497944CDE90310114688
:100460006846FFF721FF0FB000BD0000E5FFFFFF6A
:100470000A6802F8010B0A607047000000487047E4
:10048000000000207546FFF7F9FFAE4605006946FB
:10049000534620F00700854618B020B5FFF7DEFE72
:1004A000BDE820404FF000064FF000074FF0000875
:1004B0004FF0000BAC46ACE8C009ACE8C009ACE8B2
:1004C000C009ACE8C00921F007018D46704710B59E
:1004D0000446AFF300802046BDE81040FFF7AABEF7
:1004E00001491820ABBEFEE726000200704700005D
:1004F000F0B587B04FF400300121012400F00AFA72
:100500000120012100F0FAF90820012100F0F6F99C
:100510008DF8184044F200444FF4E040C4F2000467
:1005200005AD0027059004F5E43029468DF81A70D2
:1005300000F026F840F20230C0F2001006900420CD
:1005400004F5DE3605903046294600F019F83046AD
:100550000221072200F058F84FF4E13001904FF4E7
:100560000020CDE9027001A92046ADF8107000F01E
:10057000B3FA2046012100F0A5FA07B0F0BD000053
:100580002DE9F041D1F8008000234FF0030C4FF02B
:10059000010E00240FE000BFC268AA43C260CA79FE
:1005A000C5689A402A43C2600134102C03F102034B
:1005B00008BFBDE8F08128FA04F5ED07F4D006681D
:1005C0000CFA03F5AE4306600E79076806FA03F2EB
:1005D000013E3A43012E0260DED88268EE4332408B
:1005E00082604A798E7987689A403A43826042688D
:1005F0000EFA04F7BA43426006FA04F2466892B271
:1006000032434260C8E700001C2303EA810C6FF00C
:10061000030303EA510108440F23016A03FA0CF3B0
:1006200099430162016A02FA0CF2114301627047B8
:1006300041837047018370470288002918BF012158
:1006400022F4806242EA812101807047828A008B15
:1006500060F3174202EA0100401AB0FA80F0400944
:10066000704700000288002918BF012122F0010212
:10067000114401807047000010B586B002200121AE
:1006800000F03CF94FF40010012100F043F940F272
:100690000220C0F2011040F200440590C020C4F2D4
:1006A0000204049004A92046FFF76AFF20460621B1
:1006B0000422FFF7A9FF204607210422FFF7A4FF29
:1006C00048F2A060C0F2010000900020CBF6FF705D
:1006D0000190002002904FF48040A4F5D834ADF88A
:1006E0000C006946204600F033F820460121FFF750
:1006F000B9FF06B010BD00000288002918BF012113
:1007000022F4807242EA01210180704702880029A8
:1007100018BF012122F4007242EA41210180704792
:1007200082B00022019200920090080F019001987F
:10073000002821F07F40009906BF000C18311431C9
:10074000009100990968084018BF012002B0704765
:1007500070B584B0044680880D4620F03F06684698
:1007600000F0E4F802994DF68360C4F21B30A1FB5F
:10077000000346EA9340A080208820F001002080FA
:100780002A6848F2A060C0F2010082424FEA93401A
:1007900008D85200B1FBF2F14FF6FC72114208BFCB
:1007A000042124E0EB884BF6FF76B34204D102EB40
:1007B0004202B1FBF2F105E019235A43B1FBF2F119
:1007C00041F480410A466FF31F32B2FA82F25209B5
:1007D000114348F20002CFF6FF7211434FF49672B4
:1007E000504348F63812C0F24102A0FB022001300B
:1007F0002084A18320884FF6F53140F0010020804D
:1008000020886A890840A988084310432080A88965
:1008100029890843208104B070BD0000008AC0B25D
:100820007047000001F0FE01002A18BF01221144A8
:100830000182704701827047B0B500210446FFF77E
:10084000FBFE20460121FFF761FF4025C0F20305B2
:1008500020462946FFF7FAFE0028F9D02046BDE8D9
:10086000B040FFF7DBBF0000F0B581B015460E4683
:10087000044600BF20464FF40031FFF751FF002827
:10088000F8D1012720460121C0F20307FFF734FF0A
:1008900020463946FFF7DAFE0028F9D020463146D7
:1008A0002A46FFF7BFFF55B1012D11D17D1C00BFB6
:1008B00020462946FFF7CAFE0028F9D008E0822525
:1008C000C0F2070520462946FFF7C0FE0028F9D0F0
:1008D00001B0F0BD0121FFF719BF0000B0B504461B
:1008E000FFF7A8FF8425C0F2070500BF2046294670
:1008F000FFF7ACFE0028F9D0B0BD0000002943F698
:100900003001C4F202010A680CBF22EA0000104361
:1009100008607047002943F64001C4F202010A68EA
:100920000CBF22EA000010430860704710B543F680
:100930000401C4F202014A6802F00C0342F20042D0
:10094000082BC0F2F40206D0042B20D141F2002281
:10095000C0F27A021BE0D1F800C0D1F800E00B68C9
:100960000EF03F0EC3F388145FEA4C2341F20023DC
:10097000C0F27A0358BF1346B3FBFEF20B68624322
:10098000C3F30143022404EB4303B2FBF3F202601E
:100990004A6840F67A63C2F30312C0F600039A5C19
:1009A000046824FA02F242604C68C4F382241C5D9D
:1009B00022FA04F484604968C1F34231595C22FA96
:1009C00001F1C16010BD000082B04EF6885CCEF22D
:1009D000000CDCF8002043F6000142F47002C4F27F
:1009E0000201CCF800200A684FF6FF7042F00102C5
:1009F0000A6000228A600B68CFF6F6601840086033
:100A000043F21000C2F200404860086820F48020E1
:100A10000860CA6001920092086840F48030086063
:100A2000086800F4003000900198013001900098AF
:100A300018B90198B0F5A04FF2D10868800354BFEF
:100A40000020012000900098012834D1086C40F06B
:100A50008050086447F20000C4F20000026842F4CB
:100A60004042026088688860886840F4004088607E
:100A7000886840F4A050886045F21940C0F2407088
:100A80004860086840F08070086000BF0868800116
:100A9000FCD540F20570C1F80004886820F003001E
:100AA0008860886840F00200886000BF886800F0B5
:100AB0000C000828FAD14FF000604CF8800C02B00E
:100AC000704700008289002918BF012122F40052DA
:100AD00042EA41318181704770B584B00446008A92
:100AE0000D46C98820F4405008432082A0894EF664
:100AF000F3110840A9882A896B89084310431843D9
:100B0000A081A08AA98920F4407008436E46A08283
:100B10003046FFF70BFF41F2004144F48060C4F21D
:100B20000101884214BF06F1080006F10C000068BC
:100B3000B4F90C100122B1F1FF3FC8BF02222B68AB
:100B40001921484303FA02F1B0FBF1F048F21F51BA
:100B5000C5F2EB11A0FB01235A096FF0630302FBFE
:100B60000300B4F90C300326B3F1FF3FC8BF0426DD
:100B700000FA06F000F13200A0FB01014FF007007F
:100B8000C8BF0F2000EA511040EA0210208104B0D3
:100B900070BD0000B0B50C460978002908BFB0BD93
:100BA000054600BF28884006FCD42178284600F07E
:100BB00005F814F8010F0028F4D1B0BD6FF35F21E0
:100BC000818070477047000082B045F20045C4F252
:100BD0000005FFF78DFCFFF74FFD40F2640840F27F
:100BE000620940F2680A40F26A0B40F26C06C2F2F7
:100BF0000008C2F20009C2F2000AC2F2000B0A2485
:100C0000C2F2000606E000BF42F2C070C0F2090066
:100C1000FFF7D8FF2846D0210022FFF725FE2846FF
:100C20006B21FFF75BFE28460021FFF757FE2846A1
:100C3000FFF750FE2846D0210022FFF715FE284678
:100C40001C21FFF74BFE28460021FFF747FE2846F0
:100C5000FFF740FE2846D0210022FFF705FE284678
:100C60003B21FFF73BFE2846FFF734FE2846D02104
:100C70000122FFF7F9FD2846FFF7DEFD40F260078D
:100C8000C2F2000738802846D0210022FFF7ECFD91
:100C900028463C21FFF722FE2846FFF71BFE284688
:100CA000D0210122FFF7E0FD2846FFF7C5FDA8F897
:100CB00000002846D0210022FFF7D6FD28463D211E
:100CC000FFF70CFE2846FFF705FE2846D02101223B
:100CD000FFF7CAFD2846FFF7AFFDA9F80000284638
:100CE000D0210022FFF7C0FD28463E21FFF7F6FD88
:100CF0002846FFF7EFFD2846D0210122FFF7B4FD7B
:100D00002846FFF799FD3988B8F8002040F26603BD
:100D100042EA0121B9F80020C2F200034BF69857CD
:100D2000188040EA0220CFF6FF77AAF80010ABF84F
:100D3000000088B2394644F268220023009400F093
:100D400081F8AAF8000080B2394644F268220023F4
:100D5000009400F077F8BAF80020ABF800003046B5
:100D600034A1FFF78DFA05F53C4738463146FFF7C9
:100D700011FFBBF80020304630A1FFF781FA38465A
:100D80003146FFF707FFBAF80000072811D3BBF878
:100D9000000003280DD306280BD805F5DC373846AC
:100DA0004FF48051FFF744FC38464FF4C041FFF741
:100DB00041FCBAF80000022811D8BBF80000032853
:100DC0000DD306280BD805F5DC3738464FF4005113
:100DD000FFF72EFC38464FF4A041FFF72BFCBBF881
:100DE0000000022811D8BAF8000003280DD3062805
:100DF0000BD805F5DC3738464FF4A041FFF718FC57
:100E000038464FF40051FFF715FCBAF800000338DC
:100E100003283FF6F9AEBBF800000328FFF4F4AE58
:100E200006283FF6F1AE05F5DC304FF4E041FFF760
:100E3000FFFBE9E658203D202564000059203D20B5
:100E40002564000080B5DDF808C0A0EB010EACEB16
:100E5000030000FB0EF0511A90FBF1F0184480BD26
:100E6000F1EE100A4FF6FF71C0F2C03120EA010026
:100E700040F04070E1EE100A7047000000000102EF
:100E80000304010203040607080900009C0E000881
:0C0E900000000020A0060000F001000897
:0400000508000241AC
:00000001FF
