:020000040800F2
:10000000C006002031020008390200083B02000847
:100010003D0200083F020008410200080000000005
:100020000000000000000000000000004302000883
:1000300045020008000000004702000849020008CD
:100040004B0200084B0200084B0200084B0200085C
:100050004B0200084B0200084B0200084B0200084C
:100060004B0200084B0200084B0200084B0200083C
:100070004B0200084B0200084B0200084B0200082C
:100080004B0200084B0200084B0200084B0200081C
:100090004B0200084B0200084B0200084B0200080C
:1000A0004B0200084B0200084B0200084B020008FC
:1000B0004B0200084B0200084B0200084B020008EC
:1000C0004B0200084B0200084B0200084B020008DC
:1000D0004B0200084B0200084B0200084B020008CC
:1000E0004B0200084B0200084B0200084B020008BC
:1000F0004B0200084B0200084B0200084B020008AC
:100100004B0200084B0200084B0200084B0200089B
:100110004B0200084B0200084B0200084B0200088B
:100120004B0200084B0200084B0200084B0200087B
:100130004B0200084B0200084B0200084B0200086B
:100140004B0200084B0200084B0200084B0200085B
:100150004B0200084B0200084B0200084B0200084B
:100160004B0200084B0200084B0200084B0200083B
:100170004B0200084B0200084B0200084B0200082B
:100180004B0200084B02000800F002F800F041F8B2
:100190000AA090E8000C82448344AAF10107DA45E2
:1001A00001D100F036F8AFF2090EBAE80F0013F0F3
:1001B000010F18BFFB1A43F0010318478C0C000015
:1001C000AC0C0000103A24BF78C878C1FAD85207A6
:1001D00024BF30C830C144BF04680C6070470000C1
:1001E0000023002400250026103A28BF78C1FBD840
:1001F000520728BF30C148BF0B607047642900F028
:100200007F80002070471FB500F019FE1FBD10B59C
:1002100010BD00F02AF91146FFF7F5FF00F066FC6B
:1002200000F048F903B4FFF7F2FF03BC00F050F907
:100230000948804709480047FEE7FEE7FEE7FEE77A
:10024000FEE7FEE7FEE7FEE7FEE7FEE704480549B6
:10025000054A064B7047000069090008890100083B
:10026000C0000020C0060020C0020020C002002004
:100270000FB41CB5074B06AA7B446946009005984D
:1002800000F0DBF80020694600F0EAF81CBC5DF8DD
:1002900014FB0000E50100002DE9F0410E46044684
:1002A000002020622046E168884730B3252805D029
:1002B000D4E901219047206A401CF2E7E16820461A
:1002C00000278847050018D0A5F14100192802D859
:1002D00020354FF400673246294620462760FFF755
:1002E0008DFF40B1012804D0F61D26F00706083620
:1002F000D8E7361DD6E72846DAE7206ABDE8F08160
:100300002DE9F0410646002410687529314616A5EE
:1003100010D0AFF30080002802DA404213A507E0B6
:1003200031688A0701D512A502E0490704D511A555
:10033000012401E0AFF3008000210A2206F1240726
:1003400009E0B0FBF2FCB0FBF2F302FB1C00303022
:1003500078541846491C0028F3D123462A463046D3
:10036000BDE8F04100F00BB8000000002D000000D7
:100370002B000000200000007047704770472DE9F7
:10038000F0470D4699469246044600F1240801685C
:10039000880604D5E06921F01001216000E0012009
:1003A000A84201DD471B00E00027A1697A1902EB92
:1003B0000900081AA0612078C00602D42046AFF3D5
:1003C0000080002608E0D4E901211AF806009047D1
:1003D000206A401C761C20624E45F4DB2078C00663
:1003E0000AD52046AFF3008006E0D4E90121302091
:1003F0009047206A401C2062381EA7F10107F4DCF8
:1004000007E0D4E9012118F805009047206A401C54
:100410002062281EA5F10105F3DC2046AFF3008021
:100420002078000602D50220BDE8F0870120FBE716
:1004300001694A1C02610878704700B58FB0CDE9A8
:1004400001310021059105497944CDE90310114698
:100450006846FFF721FF0FB000BD0000E5FFFFFF7A
:100460000A6802F8010B0A607047754600F02CF824
:10047000AE4605006946534620F00700854618B091
:1004800020B5FFF7E3FEBDE820404FF000064FF037
:1004900000074FF000084FF0000B21F00701AC46B9
:1004A000ACE8C009ACE8C009ACE8C009ACE8C009D8
:1004B0008D46704710B50446AFF300802046BDE876
:1004C0001040FFF7AFBE0000004870475C000020FE
:1004D00001491820ABBEFEE7260002007047F0B5C8
:1004E0000A4600210023002400BF3DE0012505FA53
:1004F00001F3156805EA03049C4234D105684F00F6
:100500000326BE40B543056015794E00B540066828
:10051000354305601579012D02D01579022D16D1CC
:1005200085684F000326BE40B543856055794E006F
:10053000B540866835438560456801268E40B543E1
:100540004560456896798E40B6B235434560C568CA
:100550004F000326BE40B543C560D5794E00B54077
:10056000C6683543C560491C1029BFD3F0BDF0B53E
:10057000002300244D07ED0E02FA05F3CE1000F122
:10058000200555F826504E07F70E0F26BE40B543FE
:10059000CF1000F1200646F82750CE1000F12005BC
:1005A00055F8265045EA0304CE1000F1200545F821
:1005B0002640F0BD418370470183704721B1028816
:1005C00042F48062028004E002884FF6FF331A4052
:1005D0000280704770B502460024002500230020E9
:1005E000958A138B1B0445EA030626F07F4404EA30
:1005F00001068E4201D1012000E0002070BD21B132
:10060000028842F48072028004E002884FF6FF63A1
:100610001A400280704721B1028842F400720280C1
:1006200004E002884FF6FF531A40028070470CB571
:100630000246002000230193009300920B0F0193C8
:1006400021F07F41019B1BB1009B1433009303E019
:10065000090C009B18330093009B1B680B400BB1E7
:10066000012000E000200CBD0146088AC0B270479E
:1006700012B141F0010101E001F0FE010182704779
:100680000182704770B5044600212046FFF796FFAF
:1006900001212046FFF7BFFF00BF06492046FFF7B4
:1006A00099FF0028F9D02046FFF7DEFF05462846CF
:1006B00070BD00004000030070B505460E461446AC
:1006C00000BF4FF400312846FFF7B1FF0028F8D1F2
:1006D00001212846FFF793FF00BF0F492846FFF787
:1006E00079FF0028F9D0224631462846FFF7C0FF9F
:1006F0003CB900BF09492846FFF76CFF0028F9D034
:1007000009E0012C07D100BF0349491C2846FFF727
:1007100061FF0028F8D070BD0100030082000700CF
:1007200010B5044601212046FFF775FF10BD0000FB
:1007300070B504460D4629462046FFF7A1FF00BFCD
:1007400003492046FFF746FF0028F9D070BD00009E
:100750008400070029B1064A12680243044B1A605C
:1007600004E0034A12688243014B1A60704700009C
:100770003038024029B1064A12680243044B1A601D
:1007800004E0034A12688243014B1A60704700007C
:1007900040380240F0B50021002200240225002646
:1007A0000223324F3F6807F00C0121B1042905D024
:1007B000082937D105E02E4F076036E02D4F07603E
:1007C00033E02A4F3F1F3F68C7F38056274F3F1F34
:1007D0003F6807F03F036EB1264FB7FBF3F7DFF832
:1007E0008CC0ACF1040CDCF800C0CCF3881C07FB17
:1007F0000CF40CE01E4FB7FBF3F7DFF870C0ACF160
:10080000040CDCF800C0CCF3881C07FB0CF4174F79
:100810003F1F3F68C7F301477F1C7D00B4FBF5F71E
:10082000076002E0124F076000BF00BF0F4F3F6834
:1008300007F0F0010909104F7A5C0768D74047605C
:100840000A4F3F6807F4E051890A0B4F7A5C47680A
:10085000D7408760054F3F6807F46041490B064F5A
:100860007A5C4768D740C760F0BD00000838024096
:100870000024F40000127A00160000200CB50020BD
:10088000019000903448006840F48030324908609C
:1008900000BF3148006800F4003000900198401C0F
:1008A0000190009818B90198B0F5A04FF1D12A48ED
:1008B000006800F4003010B10120009001E0002039
:1008C00000900098012846D123484030006840F04D
:1008D00080502149403108602048006840F4404081
:1008E0001E4908601C48083000681B490831086030
:1008F0000846006840F4004008600846006840F47C
:10090000A05008601648091F0860081F006840F0E2
:100910008070091F086000BF0F48006800F0007079
:100920000028F9D040F205700E4908600A480830E6
:10093000006820F003000849083108600846006894
:1009400040F00200086000BF03480830006800F073
:100950000C000828F8D10CBD00380240007000409F
:1009600019544007003C024010B51548006840F497
:100970007000134908601348006840F001001149F5
:10098000086000200F49083108600E4800680E49D1
:1009900008400C4908600D48091D0860081F0068E0
:1009A00020F48020091F0860002006490C310860EF
:1009B000FFF764FF4FF0006001498039086010BD07
:1009C00088ED00E000380240FFFFF6FE1030002402
:1009D00021B1828942F40052828104E082894DF67D
:1009E000FF731A40828170472DE9FF4705460E4686
:1009F0000024A14600BFA046B08900B100BF2C8AE8
:100A000024F44054F08804432C82AC8941F20C60F9
:100A10008443B08831890843718908430443AC8119
:100A2000AC8A24F44074B0890443AC826846FFF772
:100A3000B1FE2048854202D01F48854202D1DDF830
:100A40000C9001E0DDF80890A88900F4004040B166
:100A500009EBC90000EB091031684900B0FBF1F760
:100A600007E009EBC90000EB091031688900B0FB11
:100A7000F1F76420B7FBF0F004012009642101FBC9
:100A80001078A88900F4004040B1322000EBC80083
:100A9000B0FBF1F000F00700044308E0322000EB67
:100AA00008106421B0FBF1F000F00F0004432C812A
:100AB000BDE8FF87001001400014014070B50546F5
:100AC0000C460AE000BF288800F040000028FAD158
:100AD0002178284600F005F8641C20780028F1D120
:100AE00070BDC1F3080282807047000088B0012108
:100AF0004804FFF73FFE01210846FFF72BFE0121C6
:100B00000820FFF727FE01208DF81C0000208DF83B
:100B10001E004FF4E040069006A9B148FFF7DFFC45
:100B200002208DF81C0000208DF81E000420069085
:100B300003208DF81D0001208DF81F0006A9A9488B
:100B4000FFF7CDFC07220221A648FFF710FD4FF466
:100B5000E13002900020ADF814000820ADF812003A
:100B60000020ADF81000ADF80E00ADF80C0002A9A1
:100B70009D48FFF739FF01219B48FFF729FF2DE131
:100B80000022D0219948FFF797FD6B219748FFF786
:100B9000CFFD00219548FFF7CBFD9448FFF7C0FD3E
:100BA0000022D0219148FFF787FD1C218F48FFF7D5
:100BB000BFFD00218D48FFF7BBFD8C48FFF7B0FD5E
:100BC0000022D0218948FFF777FD3B218748FFF7B6
:100BD000AFFD8648FFF7A4FD0122D0218348FFF72F
:100BE0006BFD8248FFF74EFD814908800022D0212D
:100BF0007E48FFF761FD3C217C48FFF799FD7B486B
:100C0000FFF78EFD0122D0217848FFF755FD774888
:100C1000FFF738FD774908800022D0217348FFF79D
:100C20004BFD3D217148FFF783FD7048FFF778FDCC
:100C30000122D0216D48FFF73FFD6C48FFF722FDF0
:100C40006D4908800022D0216848FFF735FD3E211C
:100C50006648FFF76DFD6548FFF762FD0122D02170
:100C60006248FFF729FD6148FFF70CFD63490880E2
:100C7000604800885E49097840EA012060490880A0
:100C80005E4800885C49097840EA01205D49088097
:100C90000A20002344F268225142009058480088FC
:100CA00000F0C2F8564908800A20002344F2682266
:100CB000514200905248008800F0B6F8514908802F
:100CC0004F48028850A15248FFF7D2FA5049514884
:100CD000FFF7F4FE4B4802884FA14D48FFF7C8FAD2
:100CE0004B494C48FFF7EAFE45480088072811DBCE
:100CF0004448008802280DDD42480088072809DAA8
:100D00004FF480513648FFF755FC4FF4C04134484A
:100D1000FFF752FC3A480088022811DC3948008865
:100D200002280DDD37480088072809DA4FF4005102
:100D30002B48FFF73FFC4FF4A0412948FFF73CFC4C
:100D400030480088072811DB2D48008802280DDD77
:100D50002C480088072809DA4FF480412048FFF723
:100D600029FC4FF440511E48FFF726FC2548008817
:100D7000022811DC2248008802280DDD2048008866
:100D8000072809DA4FF4A0411548FFF713FC4FF488
:100D900000511348FFF710FC19480088022810DDA5
:100DA0001748008807280CDA16480088022808DD52
:100DB00014480088072804DA4FF4E0410848FFF798
:100DC000F9FB17481749086004E016480068401E00
:100DD00014490860134800680028F6D1D0E60000E6
:100DE000000C02400000024000440040005400405B
:100DF00004000020060000200A0000200C00002053
:100E0000120000201400002058203D20256400001E
:100E1000280000200010014059203D2025640000DA
:100E2000C02709000000002070B50446049D601A28
:100E3000EE1A7043561A90FBF6F0184470BD4FF04E
:100E40004070E1EE100A7047680E000800000020B4
:100E500028000000C4010008900E000828000020AF
:100E600098060000E00100080000000000000000FB
:100E70000000000000000000000000000000000072
:100E80000000010203040102030406070809000030
:0400000508000231BC
:00000001FF
