:020000040800F2
:10000000600600203902000841020008430200088F
:1000100045020008470200084902000800000000ED
:100020000000000000000000000000004B0200087B
:100030004D020008000000004F02000851020008B5
:10004000530200085302000853020008530200083C
:10005000530200085302000853020008530200082C
:10006000530200085302000853020008530200081C
:10007000530200085302000853020008530200080C
:1000800053020008530200085302000853020008FC
:1000900053020008530200085302000853020008EC
:1000A00053020008530200085302000853020008DC
:1000B00053020008530200085302000853020008CC
:1000C00053020008530200085302000853020008BC
:1000D00053020008530200085302000853020008AC
:1000E000530200085302000853020008530200089C
:1000F000530200085302000853020008530200088C
:10010000530200085302000853020008530200087B
:10011000530200085302000853020008530200086B
:10012000530200085302000853020008530200085B
:10013000530200085302000853020008530200084B
:10014000530200085302000853020008530200083B
:10015000530200085302000853020008530200082B
:10016000530200085302000853020008530200081B
:100170005302000853020008530200080000000068
:10018000530200085302000800F002F800F044F89F
:1001900014A696E8000CB244B344DA4501D100F04D
:1001A0003BF8BAE80F000FA696E83000A5EB04056F
:1001B00004EB0607AAEB0704A7F101074FEA1515A0
:1001C0004FEA3414A4F10104AC4201D300F024F846
:1001D00013F0010F18BFFB1A43F0010300F001F800
:1001E000DBE718477C0200008C020000704700002B
:1001F0000023002400250026103A28BF78C1FBD830
:10020000520728BF30C148BF0B6070471FB500F0D0
:100210001AF91FBD10B510BD00F031F81146FFF7F7
:10022000F5FF00F0F3F800F04FF803B4FFF7F2FF2A
:1002300003BC00F057F80000094880470948004710
:10024000FEE7FEE7FEE7FEE7FEE7FEE7FEE7FEE786
:10025000FEE7FEE704480549054A064B70470000E3
:10026000F9030008890100086000002060060020F2
:10027000600200206002002070477047704775469A
:1002800000F02CF8AE4605006946534620F0070002
:10029000854618B020B5FFF7DDFFBDE820404FF0E0
:1002A00000064FF000074FF000084FF0000BAC467F
:1002B000ACE8C009ACE8C009ACE8C009ACE8C009CA
:1002C00021F007018D46704710B50446AFF300805A
:1002D0002046BDE81040FFF7A8BF00000048704767
:1002E0000000002001491820ABBEFEE726000200F6
:1002F0007047000080B582B00120012100F070F845
:100300004FF000700190042000900020C4F2020021
:10031000694600F003F802B080BD00002DE9F0410D
:10032000D1F8008000234FF0030C4FF0010E0024A1
:100330000FE000BFC268AA43C260CA79C5689A408C
:100340002A43C2600134102C03F1020308BFBDE848
:10035000F08128FA04F5ED07F4D006680CFA03F5ED
:10036000AE4306600E79076806FA03F2013E3A438F
:10037000012E0260DED88268EE43324082604A7904
:100380008E7987689A403A43826042680EFA04F791
:10039000BA43426006FA04F2466892B232434260BF
:1003A000C8E700000069084018BF0120704700003E
:1003B000418370470183704710B582B00820012146
:1003C000012400F00DF84FF47040009040F600401A
:1003D000C4F2020069460194FFF7A0FF02B010BD0D
:1003E000002943F63001C4F202010A680CBF22EA78
:1003F00000001043086070474EF68850CEF20000AF
:10040000016841F4700101607047000040F600444B
:10041000C4F20204FFF7D0FFFFF76CFFA4F54065BC
:1004200005E000BF20464FF47041FFF7C1FF2846AA
:100430000421FFF7B7FF0128F4D120464FF47041A3
:10044000FFF7B8FFF3E7F1EE100A4FF6FF71C0F2C5
:10045000C03120EA010040F04070E1EE100A704720
:10046000700400080000002060060000F001000891
:0400000508000239B4
:00000001FF
