:020000040800F2
:10000000A006002041020008490200084B02000837
:100010004D0200084F0200085102000800000000D5
:100020000000000000000000000000005302000873
:10003000550200080000000057020008590200089D
:100040005B0200085B0200085B0200085B0200081C
:100050005B0200085B0200085B0200085B0200080C
:100060005B0200085B0200085B0200085B020008FC
:100070005B0200085B0200085B0200085B020008EC
:100080005B0200085B0200085B0200085B020008DC
:100090005B0200085B0200085B0200085B020008CC
:1000A0005B0200085B0200085B0200085B020008BC
:1000B0005B0200085B0200085B0200085B020008AC
:1000C0005B0200085B0200085B0200085B0200089C
:1000D0005B0200085B0200085B0200085B0200088C
:1000E0005B0200085B0200085B0200085B0200087C
:1000F0005B0200085B0200085B0200085B0200086C
:100100005B0200085B0200085B0200085B0200085B
:100110005B0200085B0200085B0200085B0200084B
:100120005B0200085B0200085B0200085B0200083B
:100130005B0200085B0200085B0200085B0200082B
:100140005B0200085B0200085B0200085B0200081B
:100150005B0200085B0200085B0200085B0200080B
:100160005B0200085B0200085B0200085B020008FB
:100170005B0200085B0200085B0200080000000050
:100180005B0200085B02000800F002F800F049F88A
:1001900014A696E8000CB244B344DA4501D100F04D
:1001A00040F8BAE80F000FA696E83000A5EB04056A
:1001B00004EB0607AAEB0704A7F101074FEA1515A0
:1001C0004FEA3414A4F10104AC4201D300F029F841
:1001D00013F0010F18BFFB1A43F0010300F001F800
:1001E000DBE718477C0A00008C0A0000704700001B
:1001F0000023002400250026103A28BF78C1FBD830
:10020000520728BF30C148BF0B607047642900F017
:100210007F80002070471FB500F00AFD1FBD10B59C
:1002200010BD00F02FF91146FFF7F5FF00F070FC4C
:1002300000F04DF903B4FFF7F2FF03BC00F050F9F2
:100240000948804709480047FEE7FEE7FEE7FEE76A
:10025000FEE7FEE7FEE7FEE7FEE7FEE704480549A6
:10026000054A064B70470000010900088901000893
:10027000A0000020A0060020A0020020A002002074
:100280000FB41CB5074B06AA7B446946009005983D
:1002900000F0DBF80020694600F0EAF81CBC5DF8CD
:1002A00014FB0000E50100002DE9F0410E46044674
:1002B000002020622046E168884730B3252805D019
:1002C000D4E901219047206A401CF2E7E16820460A
:1002D00000278847050018D0A5F14100192802D849
:1002E00020354FF400673246294620462760FFF745
:1002F0008DFF40B1012804D0F61D26F00706083610
:10030000D8E7361DD6E72846DAE7206ABDE8F0814F
:100310002DE9F0410646002410687529314616A5DE
:1003200010D0AFF30080002802DA404213A507E0A6
:1003300031688A0701D512A502E0490704D511A545
:10034000012401E0AFF3008000210A2206F1240716
:1003500009E0B0FBF2FCB0FBF2F302FB1C00303012
:1003600078541846491C0028F3D123462A463046C3
:10037000BDE8F04100F00BB8000000002D000000C7
:100380002B000000200000007047704770472DE9E7
:10039000F0470D4699469246044600F1240801684C
:1003A000880604D5E06921F01001216000E00120F9
:1003B000A84201DD471B00E00027A1697A1902EB82
:1003C0000900081AA0612078C00602D42046AFF3C5
:1003D0000080002608E0D4E901211AF806009047C1
:1003E000206A401C761C20624E45F4DB2078C00653
:1003F0000AD52046AFF3008006E0D4E90121302081
:100400009047206A401C2062381EA7F10107F4DCE7
:1004100007E0D4E9012118F805009047206A401C44
:100420002062281EA5F10105F3DC2046AFF3008011
:100430002078000602D50220BDE8F0870120FBE706
:1004400001694A1C02610878704700B58FB0CDE998
:1004500001310021059105497944CDE90310114688
:100460006846FFF721FF0FB000BD0000E5FFFFFF6A
:100470000A6802F8010B0A607047000000487047E4
:10048000000000207546FFF7F9FFAE4605006946FB
:10049000534620F00700854618B020B5FFF7DEFE72
:1004A000BDE820404FF000064FF000074FF0000875
:1004B0004FF0000BAC46ACE8C009ACE8C009ACE8B2
:1004C000C009ACE8C00921F007018D46704710B59E
:1004D0000446AFF300802046BDE81040FFF7AABEF7
:1004E00001491820ABBEFEE726000200704700005D
:1004F0002DE9F0418CB0192001214FF0010800F0E6
:10050000DDF84FF48050012100F0F0F84FF4003096
:10051000012100F0DFF80024C4F202044FF470401F
:1005200004F580560AAD00270A90304629468DF81A
:100530002C808DF82E7000F065F802208DF82C00CC
:10054000E0200A90204629468DF82E7000F05AF8D7
:1005500008200A90304629468DF82C808DF82E70A0
:1005600000F050F820460521052200F08FF82046C3
:100570000621052200F08AF820460721052200F016
:1005800085F84FF08270CDF806000220C0F201001D
:1005900003904FF44070A4F5504604900DF106010D
:1005A0003046ADF80A70ADF8147000F00DF9304621
:1005B000012100F0F5F840F20220C0F200100B908B
:1005C00004200A902046294600F01CF8204602210B
:1005D000072200F05BF84FF4E13006904FF4002062
:1005E000A4F5DE34CDE9077006A92046ADF82470E5
:1005F00000F014FA2046012100F000FA0CB0BDE82A
:10060000F08100002DE9F041D1F8008000234FF087
:10061000030C4FF0010E00240FE000BFC268AA4394
:10062000C260CA79C5689A402A43C2600134102C5E
:1006300003F1020308BFBDE8F08128FA04F5ED07D5
:10064000F4D006680CFA03F5AE4306600E7907682D
:1006500006FA03F2013E3A43012E0260DED88268B8
:10066000EE43324082604A798E7987689A403A43F5
:10067000826042680EFA04F7BA43426006FA04F256
:10068000466892B232434260C8E700001C2303EA86
:10069000810C6FF0030303EA510108440F23016A40
:1006A00003FA0CF399430162016A02FA0CF2114356
:1006B000016270474183704701837047002943F608
:1006C0003001C4F202010A680CBF22EA00001043A4
:1006D00008607047002943F64001C4F202010A682D
:1006E0000CBF22EA0000104308607047002943F65F
:1006F0004401C4F202010A680CBF22EA0000104360
:100700000860704710B543F60401C4F202014A685C
:1007100002F00C0342F20042082BC0F2F40206D0B1
:10072000042B20D141F20022C0F27A021BE0D1F862
:1007300000C0D1F800E00B680EF03F0EC3F3881440
:100740005FEA4C2341F20023C0F27A0358BF1346FC
:10075000B3FBFEF20B686243C3F30143022404EBD4
:100760004303B2FBF3F202604A6840F64A43C2F325
:100770000312C0F600039A5C046824FA02F2426095
:100780004C68C4F382241C5D22FA04F48460496836
:10079000C1F34231595C22FA01F1C16010BD000081
:1007A0000288002918BF012122F0400242EA81118B
:1007B000018070470089084018BF01207047000081
:1007C00080897047818170472DE9F04102880B884C
:1007D00002F4415C4A88B1F804E043EA0C03CC8897
:1007E0001A430D8942EA0E024E8922438F892A4319
:1007F000B1F80E8032433A4342EA08020280828B0B
:1008000022F400628283098A0182BDE8F08100003F
:1008100070B543F20004C4F2010404F560450646D5
:1008200028460821FFF746FF20460221FFF7C2FFB6
:100830000028F9D046F080012046FFF7C3FF00BF33
:1008400020460121FFF7B6FF0028F9D02046FFF728
:10085000B7FF00BF20460221FFF7ACFF0028F9D008
:1008600020460021FFF7AEFF20460121FFF7A2FF3F
:100870000028F9D028460821FFF71EFF2046FFF781
:100880009FFFC0B270BD0000F0B581B043F200051B
:10089000C4F2010505F560440E46074620460821CE
:1008A000FFF708FF28460221FFF784FF0028F9D050
:1008B00028463946FFF786FF28460121FFF77AFFD1
:1008C0000028F9D02846FFF77BFF00BF2846022109
:1008D000FFF770FF0028F9D028463146FFF772FF76
:1008E00028460121FFF766FF0028F9D02846FFF7C8
:1008F00067FF2046082101B0BDE8F040FFF7DCBEED
:1009000082B04EF6885CCEF2000CDCF8002043F694
:10091000000142F47002C4F20201CCF800200A681F
:100920004FF6FF7042F001020A6000228A600B68F5
:10093000CFF6F6601840086043F21000C2F20040A3
:100940004860086820F480200860CA600192009224
:10095000086840F480300860086800F400300090B7
:10096000019801300190009818B90198B0F5A04F96
:10097000F2D10868800354BF002001200090009845
:10098000012834D1086C40F08050086447F2000020
:10099000C4F20000026842F4404202608868886045
:1009A000886840F400408860886840F4A0508860FF
:1009B00045F21940C0F240704860086840F080700D
:1009C000086000BF08688001FCD540F20570C1F8DE
:1009D0000004886820F003008860886840F0020006
:1009E000886000BF886800F00C000828FAD14FF03A
:1009F00000604CF8800C02B070470000828900292A
:100A000018BF012122F4005242EA4131818170472E
:100A10000088084018BF01207047000070B584B0FE
:100A20000446008A0D46C98820F4405008432082BD
:100A3000A0894EF6F3110840A9882A896B890843DA
:100A400010431843A081A08AA98920F4407008436C
:100A50006E46A0823046FFF755FE41F2004144F455
:100A60008060C4F20101884214BF06F1080006F15B
:100A70000C000068B4F90C100122B1F1FF3FC8BFAF
:100A800002222B681921484303FA02F1B0FBF1F06E
:100A900048F21F51C5F2EB11A0FB01235A096FF078
:100AA000630302FB0300B4F90C300326B3F1FF3FEC
:100AB000C8BF042600FA06F000F13200A0FB0101D5
:100AC0004FF00700C8BF0F2000EA511040EA0210A3
:100AD000208104B070BD0000B0B50C460978002933
:100AE00008BFB0BD054600BF28468021FFF790FF34
:100AF0000028F9D02178284600F006F814F8010FF4
:100B00000028F1D1B0BD00006FF35F2181807047F4
:100B100040F60044C4F20204FFF7EAFC04F58060EA
:100B20000821FFF7C9FD20206721FFF7ADFE40F245
:100B3000960840F2970940F2980A40F2640540F6A0
:100B40005A46C2F20008C2F20009C2F2000AC2F21A
:100B50000005C0F60006A4F5E43728E020464FF46F
:100B60000041FFF7A7FD98F9002028463146FFF71E
:100B700087FB38462946FFF7AFFF99F90020284642
:100B80003146FFF77DFB38462946FFF7A5FF9AF966
:100B9000002028463146FFF773FB38462946FFF709
:100BA0009BFF40F26000C2F200000021016029209A
:100BB000FFF72EFE88F800002B20FFF729FE89F8AA
:100BC00000002D20FFF724FE98F900B08AF80000FD
:100BD0001BF1150F20464FF4805107DDFFF76AFD2A
:100BE00020464FF40051BBF1150F03DBFFF764FD06
:100BF00002E000BFFFF75EFD99F9000010F1150F4C
:100C000006DC20464FF48041FFF756FD05E000BFAB
:100C100020464FF48041FFF74DFD9AF9000010F196
:100C2000150F9BDC20464FF40041FFF745FD9AE786
:100C3000F1EE100A4FF6FF71C0F2C03120EA010058
:100C400040F04070E1EE100A704700000000010221
:100C5000030401020304060708092564200A0000B2
:100C6000700C000800000020A0060000F001000841
:0400000508000241AC
:00000001FF
