:020000040800F2
:10000000B006002031020008390200083B02000857
:100010003D0200083F020008410200080000000005
:100020000000000000000000000000004302000883
:1000300045020008000000004702000849020008CD
:100040004B0200084B0200084B0200084B0200085C
:100050004B0200084B0200084B0200084B0200084C
:100060004B0200084B0200084B0200084B0200083C
:100070004B0200084B0200084B0200084B0200082C
:100080004B0200084B0200084B0200084B0200081C
:100090004B0200084B0200084B0200084B0200080C
:1000A0004B0200084B0200084B0200084B020008FC
:1000B0004B0200084B0200084B0200084B020008EC
:1000C0004B0200084B0200084B0200084B020008DC
:1000D0004B0200084B0200084B0200084B020008CC
:1000E0004B0200084B0200084B0200084B020008BC
:1000F0004B0200084B0200084B0200084B020008AC
:100100004B0200084B0200084B0200084B0200089B
:100110004B0200084B0200084B0200084B0200088B
:100120004B0200084B0200084B0200084B0200087B
:100130004B0200084B0200084B0200084B0200086B
:100140004B0200084B0200084B0200084B0200085B
:100150004B0200084B0200084B0200084B0200084B
:100160004B0200084B0200084B0200084B0200083B
:100170004B0200084B0200084B0200084B0200082B
:100180004B0200084B02000800F002F800F041F8B2
:100190000AA090E8000C82448344AAF10107DA45E2
:1001A00001D100F036F8AFF2090EBAE80F0013F0F3
:1001B000010F18BFFB1A43F001031847BC0B0000E6
:1001C000DC0B0000103A24BF78C878C1FAD8520777
:1001D00024BF30C830C144BF04680C6070470000C1
:1001E0000023002400250026103A28BF78C1FBD840
:1001F000520728BF30C148BF0B607047642900F028
:100200007F80002070471FB500F0B0FD1FBD10B506
:1002100010BD00F02AF91146FFF7F5FF00F06AFC67
:1002200000F048F903B4FFF7F2FF03BC00F050F907
:100230000948804709480047FEE7FEE7FEE7FEE77A
:10024000FEE7FEE7FEE7FEE7FEE7FEE704480549B6
:10025000054A064B7047000055090008890100084F
:10026000B0000020B0060020B0020020B002002044
:100270000FB41CB5074B06AA7B446946009005984D
:1002800000F0DBF80020694600F0EAF81CBC5DF8DD
:1002900014FB0000E50100002DE9F0410E46044684
:1002A000002020622046E168884730B3252805D029
:1002B000D4E901219047206A401CF2E7E16820461A
:1002C00000278847050018D0A5F14100192802D859
:1002D00020354FF400673246294620462760FFF755
:1002E0008DFF40B1012804D0F61D26F00706083620
:1002F000D8E7361DD6E72846DAE7206ABDE8F08160
:100300002DE9F0410646002410687529314616A5EE
:1003100010D0AFF30080002802DA404213A507E0B6
:1003200031688A0701D512A502E0490704D511A555
:10033000012401E0AFF3008000210A2206F1240726
:1003400009E0B0FBF2FCB0FBF2F302FB1C00303022
:1003500078541846491C0028F3D123462A463046D3
:10036000BDE8F04100F00BB8000000002D000000D7
:100370002B000000200000007047704770472DE9F7
:10038000F0470D4699469246044600F1240801685C
:10039000880604D5E06921F01001216000E0012009
:1003A000A84201DD471B00E00027A1697A1902EB92
:1003B0000900081AA0612078C00602D42046AFF3D5
:1003C0000080002608E0D4E901211AF806009047D1
:1003D000206A401C761C20624E45F4DB2078C00663
:1003E0000AD52046AFF3008006E0D4E90121302091
:1003F0009047206A401C2062381EA7F10107F4DCF8
:1004000007E0D4E9012118F805009047206A401C54
:100410002062281EA5F10105F3DC2046AFF3008021
:100420002078000602D50220BDE8F0870120FBE716
:1004300001694A1C02610878704700B58FB0CDE9A8
:1004400001310021059105497944CDE90310114698
:100450006846FFF721FF0FB000BD0000E5FFFFFF7A
:100460000A6802F8010B0A607047754600F02CF824
:10047000AE4605006946534620F00700854618B091
:1004800020B5FFF7E3FEBDE820404FF000064FF037
:1004900000074FF000084FF0000B21F00701AC46B9
:1004A000ACE8C009ACE8C009ACE8C009ACE8C009D8
:1004B0008D46704710B50446AFF300802046BDE876
:1004C0001040FFF7AFBE0000004870474C0000200E
:1004D00001491820ABBEFEE7260002007047F0B5C8
:1004E0000A4600210023002400BF3DE0012505FA53
:1004F00001F3156805EA03049C4234D105684F00F6
:100500000326BE40B543056015794E00B540066828
:10051000354305601579012D02D01579022D16D1CC
:1005200085684F000326BE40B543856055794E006F
:10053000B540866835438560456801268E40B543E1
:100540004560456896798E40B6B235434560C568CA
:100550004F000326BE40B543C560D5794E00B54077
:10056000C6683543C560491C1029BFD3F0BDF0B53E
:10057000002300244D07ED0E02FA05F3CE1000F122
:10058000200555F826504E07F70E0F26BE40B543FE
:10059000CF1000F1200646F82750CE1000F12005BC
:1005A00055F8265045EA0304CE1000F1200545F821
:1005B0002640F0BD418370470183704729B1064A48
:1005C00012680243044B1A6004E0034A1268824333
:1005D000014B1A60704700003038024029B1064ACA
:1005E00012680243044B1A6004E0034A1268824313
:1005F000014B1A60704700004038024029B1064A9A
:1006000012680243044B1A6004E0034A12688243F2
:10061000014B1A607047000044380240F0B50021D9
:1006200000220024022500260223324F3F6807F0F3
:100630000C0121B1042905D0082937D105E02E4F3E
:10064000076036E02D4F076033E02A4F3F1F3F68B9
:10065000C7F38056274F3F1F3F6807F03F036EB137
:10066000264FB7FBF3F7DFF88CC0ACF1040CDCF8D5
:1006700000C0CCF3881C07FB0CF40CE01E4FB7FB4A
:10068000F3F7DFF870C0ACF1040CDCF800C0CCF379
:10069000881C07FB0CF4174F3F1F3F68C7F3014747
:1006A0007F1C7D00B4FBF5F7076002E0124F076086
:1006B00000BF00BF0F4F3F6807F0F0010909104F5E
:1006C0007A5C0768D74047600A4F3F6807F4E051FB
:1006D000890A0B4F7A5C4768D7408760054F3F68AF
:1006E00007F46041490B064F7A5C4768D740C76002
:1006F000F0BD0000083802400024F40000127A0027
:100700000800002021B1028842F04002028004E08B
:1007100002884FF6BF731A400280704702460020DD
:1007200013890B400BB1012000E000207047014607
:10073000888970478181704710B50022028802F4D1
:1007400041520B884C8823438C882343CC88234315
:100750000C8923434C8923438C892343CC8923432D
:100760001A430280838B4FF2FF74234083830B8AEA
:10077000038210BD10B5044608211C48FFF71AFF7C
:1007800044F0800400BF02211948FFF7C7FF00288A
:10079000F9D021461648FFF7CDFF00BF01211448CC
:1007A000FFF7BCFF0028F9D01148FFF7C0FF00BFDA
:1007B00002210F48FFF7B2FF0028F9D000210C48B2
:1007C000FFF7B8FF00BF01210948FFF7A7FF002886
:1007D000F9D00748FFF7ABFF08210448FFF7ECFE0C
:1007E0000348FFF7A4FFC0B210BD00000010024094
:1007F0000030014070B504460D4608211848FFF747
:10080000D9FE00BF02211748FFF788FF0028F9D062
:1008100021461448FFF78EFF00BF01211148FFF762
:100820007DFF0028F9D00F48FFF781FF00BF0221AC
:100830000C48FFF773FF0028F9D029460948FFF755
:1008400079FF00BF01210748FFF768FF0028F9D0B2
:100850000448FFF76CFF08210148FFF7ADFE70BDAB
:1008600000100240003001400CB5002001900090C3
:100870003448006840F480303249086000BF314895
:10088000006800F4003000900198401C019000982E
:1008900018B90198B0F5A04FF1D12A48006800F4CA
:1008A000003010B10120009001E00020009000987D
:1008B000012846D123484030006840F0805021494B
:1008C000403108602048006840F440401E490860FC
:1008D0001C48083000681B49083108600846006859
:1008E00040F4004008600846006840F4A0500860EA
:1008F0001648091F0860081F006840F08070091F33
:10090000086000BF0F48006800F000700028F9D0B0
:1009100040F205700E4908600A480830006820F06F
:1009200003000849083108600846006840F00200EA
:10093000086000BF03480830006800F00C00082879
:10094000F8D10CBD00380240007000401954400737
:10095000003C024010B51548006840F4700013498F
:1009600008601348006840F0010011490860002049
:100970000F49083108600E4800680E4908400C49CC
:1009800008600D48091D0860081F006820F48020D9
:10099000091F0860002006490C310860FFF764FF5A
:1009A0004FF0006001498039086010BD88ED00E01B
:1009B00000380240FFFFF6FE1030002421B182898A
:1009C00042F40052828104E082894DF6FF731A409E
:1009D0008281704702460020B1F5007F00D100BF40
:1009E00013880B400BB1012000E00020704700008D
:1009F0002DE9FF4705460E460024A14600BFA0464C
:100A0000B08900B100BF2C8A24F44054F08804431C
:100A10002C82AC8941F20C608443B0883189084350
:100A2000718908430443AC81AC8A24F44074B089D2
:100A30000443AC826846FFF7F1FD2048854202D0AE
:100A40001F48854202D1DDF80C9001E0DDF80890E6
:100A5000A88900F4004040B109EBC90000EB09107F
:100A600031684900B0FBF1F707E009EBC90000EB82
:100A7000091031688900B0FBF1F76420B7FBF0F092
:100A800004012009642101FB1078A88900F40040CA
:100A900040B1322000EBC800B0FBF1F000F00700DD
:100AA000044308E0322000EB08106421B0FBF1F0B1
:100AB00000F00F0004432C81BDE8FF8700100140C7
:100AC0000014014070B505460C460BE000BF8021C4
:100AD0002846FFF77FFF0028F9D02178284600F04C
:100AE00005F8641C20780028F0D170BDC1F308021D
:100AF000828070478CB001211920FFF75FFD012132
:100B00000803FFF77BFD01214804FFF767FD022082
:100B10008DF82C0000208DF82E00E0200A900AA904
:100B20008548FFF7DCFC01208DF82C0000208DF8B3
:100B30002E0008200A900AA98048FFF7D0FC012067
:100B40008DF82C0000208DF82E004FF470400A9094
:100B50000AA97A48FFF7C3FC052211467648FFF739
:100B600006FD052206217448FFF701FD0522072135
:100B70007148FFF7FCFC0020ADF81000ADF8040050
:100B80004FF48270ADF806000020ADF80800ADF813
:100B900012000220ADF80A000120ADF80C004FF45D
:100BA0004070ADF80E0001A96548FFF7C5FD0121B1
:100BB0006348FFF7A7FD02208DF82C0000208DF878
:100BC0002E0004200A9002208DF82D0001208DF8BF
:100BD0002F000AA95848FFF782FC07220221564835
:100BE000FFF7C5FC4FF4E13006900020ADF824007B
:100BF0000820ADF822000020ADF82000ADF81E005E
:100C0000ADF81C0006A94F48FFF7F2FE01214D4840
:100C1000FFF7D4FE08214948FFF7CEFC67212020CA
:100C2000FFF7E8FD87E02920FFF7A4FD40B2464921
:100C300008702B20FFF79EFD40B2444908702D201C
:100C4000FFF798FD40B2424908703F4890F9000014
:100C500010F1140F05DA4FF480513E48FFF7ACFC59
:100C600019E0394890F9000014280ADD4FF480514A
:100C70003848FFF79FFC4FF400513648FFF79CFCC3
:100C800009E04FF480513348FFF794FC4FF40051D2
:100C90003048FFF78FFC2D4890F9000010F1140F39
:100CA00005DA4FF480412B48FFF786FC04E04FF44F
:100CB00080412848FFF77EFC254890F9000010F19C
:100CC000140F05DA4FF400412248FFF775FC04E0E9
:100CD0004FF400411F48FFF76DFC1B4890F90020BE
:100CE0001DA11F48FFF7C4FA1D491648FFF7EAFE89
:100CF000164890F9002018A11948FFF7B9FA1849C9
:100D00001048FFF7DFFE124890F9002012A11448A6
:100D1000FFF7AEFA12490B48FFF7D4FE114812490B
:100D2000086004E010480068401E0F4908600E4843
:100D300000680028F6D176E700000240001002406B
:100D4000003001400044004000000020010000206D
:100D500002000020000C02402564200A0000000070
:100D600018000020C0CF6A00040000204FF040703F
:100D7000E1EE100A70470000980D00080000002006
:100D800018000000C4010008B00D00081800002081
:100D900098060000E00100080000000000000000CC
:100DA0000000000001020304010203040607080911
:0400000508000231BC
:00000001FF
