:020000040800F2
:100000009806002029020008310200083302000887
:10001000350200083702000839020008000000001D
:100020000000000000000000000000003B0200088B
:100030003D020008000000003F02000841020008E5
:10004000430200084302000843020008430200087C
:10005000430200084302000843020008430200086C
:10006000430200084302000843020008430200085C
:10007000430200084302000843020008430200084C
:10008000430200084302000843020008430200083C
:10009000430200084302000843020008430200082C
:1000A000430200084302000843020008430200081C
:1000B000430200084302000843020008430200080C
:1000C00043020008430200084302000843020008FC
:1000D00043020008430200083904000843020008F4
:1000E00043020008430200084302000843020008DC
:1000F00043020008430200084302000843020008CC
:1001000043020008430200084302000843020008BB
:1001100043020008430200084302000843020008AB
:10012000430200084302000843020008430200089B
:10013000430200084302000843020008430200088B
:10014000430200084302000843020008430200087B
:10015000430200084302000843020008430200086B
:10016000430200084302000843020008430200085B
:10017000430200084302000843020008430200084B
:10018000430200084302000800F002F800F03CF8C7
:100190000AA090E8000C82448344AAF10107DA45E2
:1001A00001D100F031F8AFF2090EBAE80F0013F0F8
:1001B000010F18BFFB1A43F0010318473C0300006E
:1001C0005C030000103A24BF78C878C1FAD85207FF
:1001D00024BF30C830C144BF04680C6070470000C1
:1001E0000023002400250026103A28BF78C1FBD840
:1001F000520728BF30C148BF0B6070471FB500F0E1
:1002000075F91FBD10B510BD00F031F81146FFF7AC
:10021000F5FF00F05DF900F04FF803B4FFF7F2FFCF
:1002200003BC00F057F80000094880470948004720
:10023000FEE7FEE7FEE7FEE7FEE7FEE7FEE7FEE796
:10024000FEE7FEE704480549054A064B70470000F3
:10025000D1030008890100089800002098060020BA
:10026000980200209802002070477047704775463A
:1002700000F02CF8AE4605006946534620F0070012
:10028000854618B020B5FFF7DDFFBDE820404FF0F0
:1002900000064FF000074FF000084FF0000B21F070
:1002A0000701AC46ACE8C009ACE8C009ACE8C0093D
:1002B000ACE8C0098D46704710B50446AFF3008026
:1002C0002046BDE81040FFF7A8BF00000048704777
:1002D0003400002001491820ABBEFEE726000200D2
:1002E000704700000CB50020019000903448006871
:1002F00040F480303249086000BF3148006800F4A3
:10030000003000900198401C0190009818B90198A5
:10031000B0F5A04FF1D12A48006800F4003010B1C8
:100320000120009001E0002000900098012846D1B3
:1003300023484030006840F0805021494031086037
:100340002048006840F440401E4908601C480830BE
:1003500000681B49083108600846006840F4004006
:1003600008600846006840F4A05008601648091F5D
:100370000860081F006840F08070091F086000BF17
:100380000F48006800F000700028F9D040F20570B6
:100390000E4908600A480830006820F00300084948
:1003A000083108600846006840F00200086000BF9D
:1003B00003480830006800F00C000828F8D10CBD94
:1003C000003802400070004019544007003C0240D1
:1003D00010B51548006840F47000134908601348D0
:1003E000006840F001001149086000200F49083101
:1003F00008600E4800680E4908400C4908600D4826
:10040000091D0860081F006820F48020091F08608B
:10041000002006490C310860FFF764FF4FF00060D0
:1004200001498039086010BD88ED00E000380240C5
:10043000FFFFF6FE1030002410B500BF20210A484F
:1004400000F02AF80028F9D0074800F032F8C4B2CA
:1004500000BF8021044800F01FF80028F9D0214691
:10046000014800F02BF810BD0044004010B50446D0
:100470000BE000BF8021074800F00EF80028F9D0FB
:100480002178044800F01AF8641C20780028F0D184
:1004900010BD00000044004002460020B1F5007F7E
:1004A00000D100BF13880B400BB1012000E00020F9
:1004B000704701468888C0F308007047C1F30802FE
:1004C0008280704700BF411E081EFCD170470000AB
:1004D00010B50448FFF7CAFF0348FFF7F3FF0020F9
:1004E00010BD00000000002040420F004FF040709F
:1004F000E1EE100A70470000180500080000002017
:1005000034000000C40100084C050008340000203D
:1005100064060000E0010008696C6B20646174618E
:100520006D6920796F6C6C6164696D00000000007A
:1005300000000000000000000000000000000000BB
:0C054000000000000000000000000000AF
:0400000508000229C4
:00000001FF
