:020000040800F2
:1000000098060020550200085D0200085F02000803
:100010006102000863020008650200080000000099
:10002000000000000000000000000000670200085F
:1000300069020008000000006B0200086D02000861
:100040006F0200086F0200086F0200086F020008CC
:100050006F0200086F0200086F0200086F020008BC
:100060006F0200086F0200086F0200086F020008AC
:100070006F0200086F0200086F0200086F0200089C
:100080006F0200086F0200086F0200086F0200088C
:100090006F0200086F0200086F0200086F0200087C
:1000A0006F0200086F0200086F0200086F0200086C
:1000B0006F0200086F0200086F0200086F0200085C
:1000C0006F0200086F0200086F0200086F0200084C
:1000D0006F0200086F020008ED0500086F020008BB
:1000E0006F0200086F0200086F0200086F0200082C
:1000F0006F0200086F0200086F0200086F0200081C
:100100006F0200086F0200086F0200086F0200080B
:100110006F0200086F0200086F0200086F020008FB
:100120006F0200086F0200086F0200086F020008EB
:100130006F0200086F0200086F0200086F020008DB
:100140006F0200086F0200086F0200086F020008CB
:100150006F0200086F0200086F0200086F020008BB
:100160006F0200086F0200086F0200086F020008AB
:100170006F0200086F0200086F0200080000000014
:100180006F0200086F02000800F002F800F052F859
:1001900014A696E8000CB244B344DA4501D100F04D
:1001A00049F8BAE80F000FA696E83000A5EB040561
:1001B00004EB0607AAEB0704A7F101074FEA1515A0
:1001C0004FEA3414A4F10104AC4201D300F032F838
:1001D00013F0010F18BFFB1A43F0010300F001F800
:1001E000DBE718477C0600009C060000103A24BF9D
:1001F00078C878C1FAD8520724BF30C830C144BF8C
:1002000004680C6070470000704700000023002461
:1002100000250026103A28BF78C1FBD8520728BF16
:1002200030C148BF0B6070471FB500F004FB1FBD15
:1002300010B510BD00F031F81146FFF7F5FF00F0E2
:10024000E9FA00F04FF803B4FFF7F2FF03BC00F047
:1002500057F800000948804709480047FEE7FEE7D5
:10026000FEE7FEE7FEE7FEE7FEE7FEE7FEE7FEE766
:1002700004480549054A064B70470000F104000890
:1002800089010008980000209806002098020020AC
:1002900098020020704770477047754600F02CF8B0
:1002A000AE4605006946534620F00700854618B063
:1002B00020B5FFF7DDFFBDE820404FF000064FF00E
:1002C00000074FF000084FF0000BAC46ACE8C00947
:1002D000ACE8C009ACE8C009ACE8C00921F00701EE
:1002E0008D46704710B50446AFF300802046BDE848
:1002F0001040FFF7A8BF00000048704738000020FA
:1003000001491820ABBEFEE726000200704700003E
:100310002DE9F041D1F8008000234FF0030C4FF09D
:10032000010E00240FE000BFC268AA43C260CA7970
:10033000C5689A402A43C2600134102C03F10203BD
:1003400008BFBDE8F08128FA04F5ED07F4D006688F
:100350000CFA03F5AE4306600E79076806FA03F25D
:10036000013E3A43012E0260DED88268EE433240FD
:1003700082604A798E7987689A403A4382604268FF
:100380000EFA04F7BA43426006FA04F2466892B2E3
:1003900032434260C8E700001C2303EA810C6FF07F
:1003A000030303EA510108440F23016A03FA0CF323
:1003B00099430162016A02FA0CF21143016270472B
:1003C00010B5C17800294EF20011CEF200011CD008
:1003D0004EF60C52CEF200021268072323EA1222D4
:1003E0000F23C2F1040C23FA02FE427884785FFAEC
:1003F0008CF390F800C09A4004EA0E031A431201ED
:1004000001EB0C0383F8002300E080310078012326
:1004100000F01F0203FA02F2C0F3421041F820205C
:1004200010BD0000002943F63001C4F202010A6841
:100430000CBF22EA0000104308607047002943F611
:100440004001C4F202010A680CBF22EA0000104316
:100450000860704710B543F60401C4F202014A680F
:1004600002F00C0342F20042082BC0F2F40206D064
:10047000042B20D141F20022C0F27A021BE0D1F815
:1004800000C0D1F800E00B680EF03F0EC3F38814F3
:100490005FEA4C2341F20023C0F27A0358BF1346AF
:1004A000B3FBFEF20B686243C3F30143022404EB87
:1004B0004303B2FBF3F202604A6840F65003C2F312
:1004C0000312C0F600039A5C046824FA02F2426048
:1004D0004C68C4F382241C5D22FA04F484604968E9
:1004E000C1F34231595C22FA01F1C16010BD000034
:1004F00082B04EF6885CCEF2000CDCF8002043F6A9
:10050000000142F47002C4F20201CCF800200A6833
:100510004FF6FF7042F001020A6000228A600B6809
:10052000CFF6F6601840086043F21000C2F20040B7
:100530004860086820F480200860CA600192009238
:10054000086840F480300860086800F400300090CB
:10055000019801300190009818B90198B0F5A04FAA
:10056000F2D10868800354BF002001200090009859
:10057000012834D1086C40F08050086447F2000034
:10058000C4F20000026842F4404202608868886059
:10059000886840F400408860886840F4A050886013
:1005A00045F21940C0F240704860086840F0807021
:1005B000086000BF08688001FCD540F20570C1F8F2
:1005C0000004886820F003008860886840F002001A
:1005D000886000BF886800F00C000828FAD14FF04E
:1005E00000604CF8800C02B070470000B0B544F2D7
:1005F0000044C4F2000400BF2046202100F084F82B
:100600000028F9D0204600F0FBF80546204680215E
:1006100000F07AF80028F9D0E9B22046BDE8B040F1
:1006200000F0F2B8B0B504460078002808BFB0BDAD
:1006300044F20045C4F200052846802100F064F829
:100640000028F9D02178284600F0DEF814F8010FD0
:100650000028F1D1B0BD00008289002918BF012116
:1006600022F4005242EA413181817047B0B588B02E
:1006700001200121FFF7D6FE40F2022044F200449F
:10068000C0F20010C4F2000407900C2004F5DE351F
:10069000069006A92846FFF73BFE284602210722BE
:1006A000FFF77AFE284603210722FFF775FE4FF475
:1006B00000300121FFF7C2FE4FF4165002900020D7
:1006C0004FF44021ADF81400CDE9030102A9204602
:1006D00000F038F8204640F22551012200F01AF8C7
:1006E0002620C0F20010019001A8FFF769FE4EF22B
:1006F0000410CEF200004021016020460121FFF7E6
:10070000ABFF08B0B0BD00000088084018BF012052
:1007100070470000C1F3421301F01F0C1421022B9B
:1007200008BF1021012B4FF0010308BF0C21002A44
:1007300003FA0CF243580CBF23EA02021A43425058
:100740007047000070B584B00446008A0D46C98821
:1007500020F4405008432082A0894EF6F31108404F
:10076000A9882A896B89084310431843A081A08A6D
:10077000A98920F4407008436E46A0823046FFF7F6
:1007800069FE41F2004144F48060C4F201018842F4
:1007900014BF06F1080006F10C000068B4F90C1053
:1007A0000122B1F1FF3FC8BF02222B681921484343
:1007B00003FA02F1B0FBF1F048F21F51C5F2EB1160
:1007C000A0FB01235A096FF0630302FB0300B4F995
:1007D0000C300326B3F1FF3FC8BF042600FA06F031
:1007E00000F13200A0FB01014FF00700C8BF0F204D
:1007F00000EA511040EA0210208104B070BD0000F0
:1008000080886FF35F2070476FF35F2181807047AE
:1008100070470000FFF72AFF40F2000444F2402531
:10082000C2F20004C0F20F052046FFF7FBFE284687
:10083000FFF7EEFFF8E7F1EE100A4FF6FF71C0F296
:10084000C03120EA010040F04070E1EE100A70472C
:100850000000000001020304010203040607080966
:10086000800800080000002034000000EC010008AF
:10087000B408000838000020600600000C020008E0
:1008800066617469682073616661206F7A6775724A
:100890000000000000000000000000000000000058
:1008A0000000000000000000000000000000000048
:0408B0000000000044
:040000050800025598
:00000001FF
