:020000040800F2
:10000000600600203902000841020008430200088F
:1000100045020008470200084902000800000000ED
:100020000000000000000000000000004B0200087B
:100030004D020008000000004F02000851020008B5
:10004000530200085302000853020008530200083C
:10005000530200085302000853020008530200082C
:10006000530200085302000853020008530200081C
:10007000530200085302000853020008530200080C
:1000800053020008530200085302000853020008FC
:1000900053020008530200085302000853020008EC
:1000A00053020008530200085302000853020008DC
:1000B000910500085302000853020008530200088B
:1000C00053020008530200085302000853020008BC
:1000D00053020008530200085302000853020008AC
:1000E000530200085302000853020008530200089C
:1000F000530200085302000853020008530200088C
:10010000530200085302000853020008530200087B
:10011000530200085302000853020008530200086B
:10012000530200085302000853020008530200085B
:10013000530200085302000853020008530200084B
:10014000530200085302000853020008530200083B
:10015000530200085302000853020008530200082B
:10016000530200085302000853020008530200081B
:100170005302000853020008530200080000000068
:10018000530200085302000800F002F800F044F89F
:1001900014A696E8000CB244B344DA4501D100F04D
:1001A0003BF8BAE80F000FA696E83000A5EB04056F
:1001B00004EB0607AAEB0704A7F101074FEA1515A0
:1001C0004FEA3414A4F10104AC4201D300F024F846
:1001D00013F0010F18BFFB1A43F0010300F001F800
:1001E000DBE71847D4040000E40400007047000077
:1001F0000023002400250026103A28BF78C1FBD830
:10020000520728BF30C148BF0B6070471FB500F0D0
:1002100046FA1FBD10B510BD00F031F81146FFF7CA
:10022000F5FF00F039FA00F04FF803B4FFF7F2FFE2
:1002300003BC00F057F80000094880470948004710
:10024000FEE7FEE7FEE7FEE7FEE7FEE7FEE7FEE786
:10025000FEE7FEE704480549054A064B70470000E3
:100260009504000889010008600000206006002055
:10027000600200206002002070477047704775469A
:1002800000F02CF8AE4605006946534620F0070002
:10029000854618B020B5FFF7DDFFBDE820404FF0E0
:1002A00000064FF000074FF000084FF0000BAC467F
:1002B000ACE8C009ACE8C009ACE8C009ACE8C009CA
:1002C00021F007018D46704710B50446AFF300805A
:1002D0002046BDE81040FFF7A8BF00000048704767
:1002E0000000002001491820ABBEFEE726000200F6
:1002F0007047000080B586B00820012100F0B2F8F8
:1003000040F2011005904FF40050049040F6004078
:10031000C4F2020004A900F02BF80120012100F032
:10032000ADF842F2CF00019042F20F7002904FF40C
:100330000070ADF80C0000208DF80E0001A94FF000
:10034000804000F05FF94FF08040012100F03CF95F
:100350004FF080400121012200F04CF91C20C0F236
:1003600001100090684600F04BF806B080BD000018
:100370002DE9F041D1F8008000234FF0030C4FF03D
:10038000010E00240FE000BFC268AA43C260CA7910
:10039000C5689A402A43C2600134102C03F102035D
:1003A00008BFBDE8F08128FA04F5ED07F4D006682F
:1003B0000CFA03F5AE4306600E79076806FA03F2FD
:1003C000013E3A43012E0260DED88268EE4332409D
:1003D00082604A798E7987689A403A43826042689F
:1003E0000EFA04F7BA43426006FA04F2466892B283
:1003F00032434260C8E700004269514041617047A2
:1004000010B5C17800294EF20011CEF200011CD0C7
:100410004EF60C52CEF200021268072323EA122293
:100420000F23C2F1040C23FA02FE427884785FFAAB
:100430008CF390F800C09A4004EA0E031A431201AC
:1004400001EB0C0383F8002300E0803100780123E6
:1004500000F01F0203FA02F2C0F3421041F820201C
:1004600010BD0000002943F63001C4F202010A6801
:100470000CBF22EA0000104308607047002943F6D1
:100480004001C4F202010A680CBF22EA00001043D6
:100490000860704782B04EF6885CCEF2000CDCF843
:1004A000002043F6000142F47002C4F20201CCF8CD
:1004B00000200A684FF6FF7042F001020A60002235
:1004C0008A600B68CFF6F6601840086043F21000AF
:1004D000C2F200404860086820F480200860CA60CA
:1004E00001920092086840F480300860086800F4C7
:1004F00000300090019801300190009818B90198DF
:10050000B0F5A04FF2D10868800354BF002001204D
:1005100000900098012834D1086C40F080500864A5
:1005200047F20000C4F20000026842F44042026058
:1005300088688860886840F400408860886840F473
:10054000A050886045F21940C0F2407048600868C9
:1005500040F08070086000BF08688001FCD540F260
:100560000570C1F80004886820F00300886088687E
:1005700040F00200886000BF886800F00C00082886
:10058000FAD14FF000604CF8800C02B070470000C8
:1005900080B54FF08040012100F020F8002808BF0E
:1005A00080BD4FF08040012100F00AF840F6004085
:1005B000C4F202004FF40051BDE88040FFF71CBFB9
:1005C000C9430182704700000288002918BF012139
:1005D00022F001021144018070470000028A8089E4
:1005E0000A4000EA010018BF0122002818BF0120BC
:1005F00010407047002A82890CBF22EA0101114392
:100600008181704710B540F6FF32B0F800E0C4F2C7
:10061000000240F2004C9042C4F2010C0FDCB0F139
:10062000804F19D040F20042C4F20002904213D031
:1006300040F60002C4F2000290420DD011E040F6F4
:100640000042C4F20002904206D0604504D000226D
:10065000C4F20102904204D14A882EF0700342EAAB
:10066000030E41F2004340F48062C4F200039A4258
:1006700004D00C892EF4407344EA030EA0F800E085
:100680004B686245C3620B88038504BF897A018683
:100690000121818210BD0000FFF72CFEFEE7F1EE84
:1006A000100A4FF6FF71C0F2C03120EA010040F09D
:1006B0004070E1EE100A7047C806000800000020F4
:0806C00060060000F0010008D3
:0400000508000239B4
:00000001FF
