:020000040800F2
:10000000600600200D020008150200081702000813
:10001000190200081B0200081D0200080000000071
:100020000000000000000000000000001F020008A7
:100030002102000800000000230200082502000839
:1000400027020008270200082702000827020008EC
:1000500027020008270200082702000827020008DC
:1000600027020008270200082702000827020008CC
:1000700027020008270200082702000827020008BC
:1000800027020008270200082702000827020008AC
:10009000270200082702000827020008270200089C
:1000A000270200082702000827020008270200088C
:1000B0006D05000827020008270200082702000833
:1000C000270200082702000827020008270200086C
:1000D000270200082702000827020008270200085C
:1000E000270200082702000827020008270200084C
:1000F000270200082702000827020008270200083C
:10010000270200082702000827020008270200082B
:10011000270200082702000827020008270200081B
:10012000270200082702000827020008270200080B
:1001300027020008270200082702000827020008FB
:1001400027020008270200082702000827020008EB
:1001500027020008270200082702000827020008DB
:1001600027020008270200082702000827020008CB
:1001700027020008270200082702000827020008BB
:10018000270200082702000800F002F800F02EF80D
:100190000AA090E8000C82448344AAF10107DA45E2
:1001A00001D100F023F8AFF2090EBAE80F0013F006
:1001B000010F18BFFB1A43F0010318475405000054
:1001C000640500000023002400250026103A28BF03
:1001D00078C1FBD8520728BF30C148BF0B607047B9
:1001E0001FB500F08FFA1FBD10B510BD00F031F83B
:1001F0001146FFF7F5FF00F037FA00F04FF803B4AF
:10020000FFF7F2FF03BC00F057F8000009488047F1
:1002100009480047FEE7FEE7FEE7FEE7FEE7FEE7E8
:10022000FEE7FEE7FEE7FEE704480549054A064B00
:1002300070470000050500088901000860000020E3
:1002400060060020600200206002002070477047B6
:100250007047754600F02CF8AE46050069465346D7
:1002600020F00700854618B020B5FFF7DDFFBDE898
:1002700020404FF000064FF000074FF000084FF00D
:10028000000B21F00701AC46ACE8C009ACE8C0099E
:10029000ACE8C009ACE8C0098D46704710B504460B
:1002A000AFF300802046BDE81040FFF7A8BF000074
:1002B000004870470000002001491820ABBEFEE74F
:1002C000260002007047F0B50A46002100230024F2
:1002D00000BF3DE0012505FA01F3156805EA0304B6
:1002E0009C4234D105684F000326BE40B5430560EB
:1002F00015794E00B5400668354305601579012D26
:1003000002D01579022D16D185684F000326BE4014
:10031000B543856055794E00B540866835438560A4
:10032000456801268E40B5434560456896798E4004
:10033000B6B235434560C5684F000326BE40B5439D
:10034000C560D5794E00B540C6683543C560491CC7
:100350001029BFD3F0BD42694A4042617047000096
:1003600070B5002100230F22C4781CB3174C2468F9
:1003700004F4E064C4F5E064C4F30721C1F10404AB
:10038000E3B20A4144789C40E1B2847814402143AE
:100390000C07210E0E4C05786155047804F01F05FA
:1003A0000124AC4005786D11AD0005F1E025C5F8DC
:1003B000004109E0047804F01F050124AC40054D1C
:1003C0000678761145F8264070BD00000CED00E07F
:1003D00000E400E080E100E029B1064A126802432F
:1003E000044B1A6004E0034A12688243014B1A600E
:1003F000704700003038024029B1064A12680243B3
:10040000044B1A6004E0034A12688243014B1A60ED
:1004100070470000403802400CB500200190009069
:100420003448006840F480303249086000BF3148E9
:10043000006800F4003000900198401C0190009882
:1004400018B90198B0F5A04FF1D12A48006800F41E
:10045000003010B10120009001E0002000900098D1
:10046000012846D123484030006840F0805021499F
:10047000403108602048006840F440401E49086050
:100480001C48083000681B490831086008460068AD
:1004900040F4004008600846006840F4A05008603E
:1004A0001648091F0860081F006840F08070091F87
:1004B000086000BF0F48006800F000700028F9D005
:1004C00040F205700E4908600A480830006820F0C4
:1004D00003000849083108600846006840F002003F
:1004E000086000BF03480830006800F00C000828CE
:1004F000F8D10CBD0038024000700040195440078C
:10050000003C024010B51548006840F470001349E3
:1005100008601348006840F001001149086000209D
:100520000F49083108600E4800680E4908400C4920
:1005300008600D48091D0860081F006820F480202D
:10054000091F0860002006490C310860FFF764FFAE
:100550004FF0006001498039086010BD88ED00E06F
:1005600000380240FFFFF6FE1030002410B50121D4
:10057000880700F01CF840B10121880700F008F856
:100580004FF400510148FFF7E6FE10BD000C024099
:10059000CA430282704721B1028842F00102028000
:1005A00004E002884FF6FE731A400280704730B5AF
:1005B0000246002000230024158A05EA01039589DC
:1005C00005EA010413B10CB1012000E0002030BDA8
:1005D0001AB183890B43838102E083898B43838132
:1005E0007047000000220288184B98420ED0184B2A
:1005F00098420BD0B0F1804F08D0164B984205D0EE
:10060000154B984202D0154B984204D14FF68F7388
:100610001A404B881A43124B984207D0114B98420C
:1006200004D04FF6FF431A400B891A4302804B68EF
:10063000C3620B880385054B984202D0044B984255
:1006400001D18B7A03860123838270470000014029
:10065000000401400004004000080040000C00407D
:10066000001000400014004000B587B001210820B0
:10067000FFF7B2FE01208DF8180000208DF81A0057
:100680004FF40050059000208DF81B0001208DF8DC
:10069000190005A91A48FFF716FE01210846FFF7C1
:1006A000ABFE41F26700ADF808000020ADF80A008B
:1006B000C72003904FF40070ADF8100032208DF881
:1006C000120002A94007FFF78DFF01218807FFF7FD
:1006D00062FF012211469007FFF77AFF1C208DF878
:1006E000040000208DF8050001208DF806008DF82B
:1006F000070001A8FFF734FE002007B000BD00008E
:10070000000C02404FF04070E1EE100A704700000C
:10071000200700080000002060060000C401000857
:040000050800020DE0
:00000001FF
