:020000040800F2
:10000000600600200D020008150200081702000813
:10001000190200081B0200081D0200080000000071
:100020000000000000000000000000001F020008A7
:100030002102000800000000230200082502000839
:1000400027020008270200082702000827020008EC
:1000500027020008270200086D0300082702000895
:1000600027020008270200082702000827020008CC
:1000700027020008270200082702000827020008BC
:1000800027020008270200082702000827020008AC
:10009000270200082702000827020008270200089C
:1000A000270200082702000827020008270200088C
:1000B000270200082702000827020008270200087C
:1000C000270200082702000827020008270200086C
:1000D000270200082702000827020008270200085C
:1000E000270200082702000827020008270200084C
:1000F000270200082702000827020008270200083C
:10010000270200082702000827020008270200082B
:10011000270200082702000827020008270200081B
:10012000270200082702000827020008270200080B
:1001300027020008270200082702000827020008FB
:1001400027020008270200082702000827020008EB
:1001500027020008270200082702000827020008DB
:1001600027020008270200082702000827020008CB
:1001700027020008270200082702000827020008BB
:10018000270200082702000800F002F800F02EF80D
:100190000AA090E8000C82448344AAF10107DA45E2
:1001A00001D100F023F8AFF2090EBAE80F0013F006
:1001B000010F18BFFB1A43F0010318478005000028
:1001C000900500000023002400250026103A28BFD7
:1001D00078C1FBD8520728BF30C148BF0B607047B9
:1001E0001FB500F0A6FA1FBD10B510BD00F031F824
:1001F0001146FFF7F5FF00F097FA00F04FF803B44F
:10020000FFF7F2FF03BC00F057F8000009488047F1
:1002100009480047FEE7FEE7FEE7FEE7FEE7FEE7E8
:10022000FEE7FEE7FEE7FEE704480549054A064B00
:1002300070470000C1060008890100086000002026
:1002400060060020600200206002002070477047B6
:100250007047754600F02CF8AE46050069465346D7
:1002600020F00700854618B020B5FFF7DDFFBDE898
:1002700020404FF000064FF000074FF000084FF00D
:10028000000B21F00701AC46ACE8C009ACE8C0099E
:10029000ACE8C009ACE8C0098D46704710B504460B
:1002A000AFF300802046BDE81040FFF7A8BF000074
:1002B000004870470000002001491820ABBEFEE74F
:1002C000260002007047000000B587B001210846F3
:1002D00000F040F900208DF818008DF81A00012078
:1002E000059002208DF81B0001208DF8190005A94A
:1002F0001D4800F0A7F801208DF8100000208DF8AF
:1003000012004FF40050039000208DF813000120DC
:100310008DF8110003A9144800F094F80121880316
:1003200000F028F90021084600F034F9012001907E
:100330008DF80A0000208DF8080008208DF80900CB
:1003400001A800F035F806208DF8000001208DF896
:10035000030000208DF801008DF80200684600F0CF
:10036000BDF807B000BD00000000024010B501203C
:1003700000F012F838B14FF40051034800F0AAF829
:10038000012000F003F810BD0000024001490860A0
:1003900070470000143C014001460020034A1268E7
:1003A0000A400AB1012000E000207047143C0140DF
:1003B000002123498279002A3AD00A46126803684C
:1003C0009A430B461A600A1D126803689A430B1D74
:1003D0001A60027911440A6803681A430A60184ACD
:1003E0000832126803689A43154B08331A601A1DC5
:1003F000126803689A43124B0C331A604279102A30
:100400000ED11A1F126803681A430D4B08331A6085
:100410001A1D126803681A43094B0C331A600DE069
:100420000749427911440A6803681A430A6005E0E3
:10043000027911440A6803689A430A607047000011
:10044000003C0140F0B50A4600210023002400BF13
:100450003DE0012505FA01F3156805EA03049C4215
:1004600034D105684F000326BE40B54305601579B9
:100470004E00B5400668354305601579012D02D060
:100480001579022D16D185684F000326BE40B5436D
:10049000856055794E00B54086683543856045686E
:1004A00001268E40B5434560456896798E40B6B2C8
:1004B00035434560C5684F000326BE40B543C5605F
:1004C000D5794E00B540C6683543C560491C102932
:1004D000BFD3F0BD42694A404261704770B5002108
:1004E00000230F22C4781CB3174C246804F4E06482
:1004F000C4F5E064C4F30721C1F10404E3B20A4186
:1005000044789C40E1B28478144021430C07210ECA
:100510000E4C05786155047804F01F050124AC40A9
:1005200005786D11AD0005F1E025C5F8004109E041
:10053000047804F01F050124AC40054D06787611BF
:1005400045F8264070BD00000CED00E000E400E03E
:1005500080E100E029B1064A12680243044B1A60A8
:1005600004E0034A12688243014B1A60704700009E
:100570003038024029B1064A12680243044B1A601F
:1005800004E0034A12688243014B1A60704700007E
:100590004438024030B500228B071C0F0F2303FAAA
:1005A00004F20B4B8C1053F824309343084C8D10FD
:1005B00044F8253023468C1053F824308C07240F40
:1005C00000FA04F42343024C8D1044F8253030BD6A
:1005D000083801400CB500200190009034480068B4
:1005E00040F480303249086000BF3148006800F4B0
:1005F000003000900198401C0190009818B90198B3
:10060000B0F5A04FF1D12A48006800F4003010B1D5
:100610000120009001E0002000900098012846D1C0
:1006200023484030006840F0805021494031086044
:100630002048006840F440401E4908601C480830CB
:1006400000681B49083108600846006840F4004013
:1006500008600846006840F4A05008601648091F6A
:100660000860081F006840F08070091F086000BF24
:100670000F48006800F000700028F9D040F20570C3
:100680000E4908600A480830006820F00300084955
:10069000083108600846006840F00200086000BFAA
:1006A00003480830006800F00C000828F8D10CBDA1
:1006B000003802400070004019544007003C0240DE
:1006C00010B51548006840F47000134908601348DD
:1006D000006840F001001149086000200F4908310E
:1006E00008600E4800680E4908400C4908600D4833
:1006F000091D0860081F006820F48020091F086099
:10070000002006490C310860FFF764FF4FF00060DD
:1007100001498039086010BD88ED00E000380240D2
:10072000FFFFF6FE1030002410B5FFF7CDFD0020CE
:1007300010BD4FF04070E1EE100A70474C07000802
:0C0740000000002060060000C40100085A
:040000050800020DE0
:00000001FF
