:020000040800F2
:10000000600600203902000841020008430200088F
:1000100045020008470200084902000800000000ED
:100020000000000000000000000000004B0200087B
:100030004D020008000000004F02000851020008B5
:10004000530200085302000853020008530200083C
:100050005302000853020008690300085302000815
:10006000530200085302000853020008530200081C
:10007000530200085302000853020008530200080C
:1000800053020008530200085302000853020008FC
:1000900053020008530200085302000853020008EC
:1000A00053020008530200085302000853020008DC
:1000B00053020008530200085302000853020008CC
:1000C00053020008530200085302000853020008BC
:1000D00053020008530200085302000853020008AC
:1000E000530200085302000853020008530200089C
:1000F000530200085302000853020008530200088C
:10010000530200085302000853020008530200087B
:10011000530200085302000853020008530200086B
:10012000530200085302000853020008530200085B
:10013000530200085302000853020008530200084B
:10014000530200085302000853020008530200083B
:10015000530200085302000853020008530200082B
:10016000530200085302000853020008530200081B
:100170005302000853020008530200080000000068
:10018000530200085302000800F002F800F044F89F
:1001900014A696E8000CB244B344DA4501D100F04D
:1001A0003BF8BAE80F000FA696E83000A5EB04056F
:1001B00004EB0607AAEB0704A7F101074FEA1515A0
:1001C0004FEA3414A4F10104AC4201D300F024F846
:1001D00013F0010F18BFFB1A43F0010300F001F800
:1001E000DBE71847A4040000B404000070470000D7
:1001F0000023002400250026103A28BF78C1FBD830
:10020000520728BF30C148BF0B6070471FB500F0D0
:100210002EFA1FBD10B510BD00F031F81146FFF7E2
:10022000F5FF00F021FA00F04FF803B4FFF7F2FFFA
:1002300003BC00F057F80000094880470948004710
:10024000FEE7FEE7FEE7FEE7FEE7FEE7FEE7FEE786
:10025000FEE7FEE704480549054A064B70470000E3
:100260006D0500088901000860000020600600207C
:10027000600200206002002070477047704775469A
:1002800000F02CF8AE4605006946534620F0070002
:10029000854618B020B5FFF7DDFFBDE820404FF0E0
:1002A00000064FF000074FF000084FF0000BAC467F
:1002B000ACE8C009ACE8C009ACE8C009ACE8C009CA
:1002C00021F007018D46704710B50446AFF300805A
:1002D0002046BDE81040FFF7A8BF00000048704767
:1002E0000000002001491820ABBEFEE726000200F6
:1002F00070470000B0B588B001200121012500F051
:1003000005F940F200100024C0F20020C4F20204FB
:10031000CDE9065006A9204600F07EF840F2011013
:1003200005904FF40050049004A9204600F074F8A2
:100330004FF48040012100F0F5F80020002100F08A
:10034000FDF84FF40060ADF80C0002A802958DF89E
:100350000E5000F02DF80620C0F20010019001A808
:1003600000F0A2F808B0B0BD80B5012000F016F88A
:10037000002808BF80BD0020C4F202004FF40051E5
:1003800000F08EF80120BDE8804000F001B80000C8
:1003900043F61441C4F201010860704743F614416A
:1003A000C4F201010968084018BF0120704700002D
:1003B0008179002943F60041C4F201011FD002688F
:1003C0000B6893430B604B6893434B60037943EA9C
:1003D000010CDCF800301A43CCF8002002688B686E
:1003E00093438B60CB689343CB60407910280ED148
:1003F000886810438860C8681043C86070470279F5
:10040000006811430A6822EA000008607047084348
:1004100001681143016070472DE9F041D1F8008077
:1004200000234FF0030C4FF0010E00240FE000BF3B
:10043000C268AA43C260CA79C5689A402A43C260AA
:100440000134102C03F1020308BFBDE8F08128FA43
:1004500004F5ED07F4D006680CFA03F5AE43066028
:100460000E79076806FA03F2013E3A43012E026054
:10047000DED88268EE43324082604A798E7987689E
:100480009A403A43826042680EFA04F7BA434260E7
:1004900006FA04F2466892B232434260C8E70000AE
:1004A000426951404161704710B5C17800294EF250
:1004B0000011CEF200011CD04EF60C52CEF200021A
:1004C0001268072323EA12220F23C2F1040C23FA35
:1004D00002FE427884785FFA8CF390F800C09A406C
:1004E00004EA0E031A43120101EB0C0383F8002304
:1004F00000E080310078012300F01F0203FA02F2CD
:10050000C0F3421041F8202010BD0000002943F63E
:100510003001C4F202010A680CBF22EA0000104355
:1005200008607047002943F64401C4F202010A68DA
:100530000CBF22EA000010430860704710B50C227F
:1005400043F6080402EA810201F0FC01C4F201044E
:100550004FF00F0C51F804E00CFA02F32EEA0303FB
:100560000B510B5990401843085110BD82B04EF604
:10057000885CCEF2000CDCF8002043F6000142F467
:100580007002C4F20201CCF800200A684FF6FF7036
:1005900042F001020A6000228A600B68CFF6F66022
:1005A0001840086043F21000C2F20040486008683A
:1005B00020F480200860CA6001920092086840F42C
:1005C00080300860086800F4003000900198013025
:1005D0000190009818B90198B0F5A04FF2D10868C1
:1005E000800354BF0020012000900098012834D1DE
:1005F000086C40F08050086447F20000C4F200002C
:10060000026842F44042026088688860886840F46A
:1006100000408860886840F4A050886045F2194026
:10062000C0F240704860086840F08070086000BF09
:1006300008688001FCD540F20570C1F800048868A4
:1006400020F003008860886840F00200886000BFE6
:10065000886800F00C000828FAD14FF000604CF8D0
:10066000800C02B070470000FFF744FEFEE7F1EE99
:10067000100A4FF6FF71C0F2C03120EA010040F0CD
:100680004070E1EE100A7047980600080000002054
:0806900060060000F001000803
:0400000508000239B4
:00000001FF
